{
  "_format": "hh-sol-artifact-1",
  "contractName": "Intel",
  "sourceName": "contracts/Intel.sol",
  "abi": [
    {
      "inputs": [
        {
          "internalType": "address",
          "name": "_cUSD",
          "type": "address"
        },
        {
          "internalType": "address",
          "name": "_aiAgent",
          "type": "address"
        },
        {
          "internalType": "address",
          "name": "_moolaMarketProxy",
          "type": "address"
        }
      ],
      "stateMutability": "nonpayable",
      "type": "constructor"
    },
    {
      "inputs": [],
      "name": "EnforcedPause",
      "type": "error"
    },
    {
      "inputs": [],
      "name": "ExpectedPause",
      "type": "error"
    },
    {
      "inputs": [
        {
          "internalType": "address",
          "name": "owner",
          "type": "address"
        }
      ],
      "name": "OwnableInvalidOwner",
      "type": "error"
    },
    {
      "inputs": [
        {
          "internalType": "address",
          "name": "account",
          "type": "address"
        }
      ],
      "name": "OwnableUnauthorizedAccount",
      "type": "error"
    },
    {
      "inputs": [],
      "name": "ReentrancyGuardReentrantCall",
      "type": "error"
    },
    {
      "inputs": [
        {
          "internalType": "address",
          "name": "token",
          "type": "address"
        }
      ],
      "name": "SafeERC20FailedOperation",
      "type": "error"
    },
    {
      "anonymous": false,
      "inputs": [
        {
          "indexed": true,
          "internalType": "address",
          "name": "newAIAgent",
          "type": "address"
        }
      ],
      "name": "AIAgentUpdated",
      "type": "event"
    },
    {
      "anonymous": false,
      "inputs": [
        {
          "indexed": true,
          "internalType": "address",
          "name": "newCUSD",
          "type": "address"
        }
      ],
      "name": "CUSDUpdated",
      "type": "event"
    },
    {
      "anonymous": false,
      "inputs": [
        {
          "indexed": true,
          "internalType": "address",
          "name": "user",
          "type": "address"
        },
        {
          "indexed": false,
          "internalType": "uint256",
          "name": "amount",
          "type": "uint256"
        }
      ],
      "name": "Deposited",
      "type": "event"
    },
    {
      "anonymous": false,
      "inputs": [
        {
          "indexed": true,
          "internalType": "address",
          "name": "newMoolaMarketProxy",
          "type": "address"
        }
      ],
      "name": "MoolaMarketProxyUpdated",
      "type": "event"
    },
    {
      "anonymous": false,
      "inputs": [
        {
          "indexed": true,
          "internalType": "address",
          "name": "previousOwner",
          "type": "address"
        },
        {
          "indexed": true,
          "internalType": "address",
          "name": "newOwner",
          "type": "address"
        }
      ],
      "name": "OwnershipTransferred",
      "type": "event"
    },
    {
      "anonymous": false,
      "inputs": [
        {
          "indexed": false,
          "internalType": "address",
          "name": "account",
          "type": "address"
        }
      ],
      "name": "Paused",
      "type": "event"
    },
    {
      "anonymous": false,
      "inputs": [
        {
          "indexed": true,
          "internalType": "address",
          "name": "pool",
          "type": "address"
        },
        {
          "indexed": false,
          "internalType": "uint256",
          "name": "amount",
          "type": "uint256"
        }
      ],
      "name": "Reallocated",
      "type": "event"
    },
    {
      "anonymous": false,
      "inputs": [
        {
          "indexed": true,
          "internalType": "address",
          "name": "pool",
          "type": "address"
        },
        {
          "indexed": false,
          "internalType": "uint256",
          "name": "amount",
          "type": "uint256"
        }
      ],
      "name": "Staked",
      "type": "event"
    },
    {
      "anonymous": false,
      "inputs": [
        {
          "indexed": true,
          "internalType": "address",
          "name": "newStakingPool",
          "type": "address"
        }
      ],
      "name": "StakingPoolUpdated",
      "type": "event"
    },
    {
      "anonymous": false,
      "inputs": [
        {
          "indexed": false,
          "internalType": "address",
          "name": "account",
          "type": "address"
        }
      ],
      "name": "Unpaused",
      "type": "event"
    },
    {
      "anonymous": false,
      "inputs": [
        {
          "indexed": true,
          "internalType": "address",
          "name": "user",
          "type": "address"
        },
        {
          "indexed": false,
          "internalType": "uint256",
          "name": "amount",
          "type": "uint256"
        }
      ],
      "name": "Withdrawn",
      "type": "event"
    },
    {
      "inputs": [],
      "name": "aiAgent",
      "outputs": [
        {
          "internalType": "address",
          "name": "",
          "type": "address"
        }
      ],
      "stateMutability": "view",
      "type": "function"
    },
    {
      "inputs": [],
      "name": "cUSD",
      "outputs": [
        {
          "internalType": "contract IERC20",
          "name": "",
          "type": "address"
        }
      ],
      "stateMutability": "view",
      "type": "function"
    },
    {
      "inputs": [],
      "name": "contractUnstakedBalance",
      "outputs": [
        {
          "internalType": "uint256",
          "name": "",
          "type": "uint256"
        }
      ],
      "stateMutability": "view",
      "type": "function"
    },
    {
      "inputs": [
        {
          "internalType": "uint256",
          "name": "amount",
          "type": "uint256"
        }
      ],
      "name": "deposit",
      "outputs": [],
      "stateMutability": "nonpayable",
      "type": "function"
    },
    {
      "inputs": [
        {
          "internalType": "address",
          "name": "user",
          "type": "address"
        }
      ],
      "name": "getUserRewards",
      "outputs": [
        {
          "internalType": "uint256",
          "name": "",
          "type": "uint256"
        }
      ],
      "stateMutability": "view",
      "type": "function"
    },
    {
      "inputs": [
        {
          "internalType": "address",
          "name": "user",
          "type": "address"
        }
      ],
      "name": "getUserStake",
      "outputs": [
        {
          "internalType": "uint256",
          "name": "amount",
          "type": "uint256"
        }
      ],
      "stateMutability": "view",
      "type": "function"
    },
    {
      "inputs": [],
      "name": "moolaMarketProxy",
      "outputs": [
        {
          "internalType": "address",
          "name": "",
          "type": "address"
        }
      ],
      "stateMutability": "view",
      "type": "function"
    },
    {
      "inputs": [],
      "name": "owner",
      "outputs": [
        {
          "internalType": "address",
          "name": "",
          "type": "address"
        }
      ],
      "stateMutability": "view",
      "type": "function"
    },
    {
      "inputs": [],
      "name": "pause",
      "outputs": [],
      "stateMutability": "nonpayable",
      "type": "function"
    },
    {
      "inputs": [],
      "name": "paused",
      "outputs": [
        {
          "internalType": "bool",
          "name": "",
          "type": "bool"
        }
      ],
      "stateMutability": "view",
      "type": "function"
    },
    {
      "inputs": [
        {
          "internalType": "address",
          "name": "_stakingPool",
          "type": "address"
        }
      ],
      "name": "reallocation",
      "outputs": [],
      "stateMutability": "nonpayable",
      "type": "function"
    },
    {
      "inputs": [
        {
          "internalType": "address",
          "name": "tokenAddress",
          "type": "address"
        },
        {
          "internalType": "uint256",
          "name": "amount",
          "type": "uint256"
        }
      ],
      "name": "recoverERC20",
      "outputs": [],
      "stateMutability": "nonpayable",
      "type": "function"
    },
    {
      "inputs": [],
      "name": "renounceOwnership",
      "outputs": [],
      "stateMutability": "nonpayable",
      "type": "function"
    },
    {
      "inputs": [
        {
          "internalType": "address",
          "name": "_aiAgent",
          "type": "address"
        }
      ],
      "name": "setAIAgent",
      "outputs": [],
      "stateMutability": "nonpayable",
      "type": "function"
    },
    {
      "inputs": [
        {
          "internalType": "address",
          "name": "_cUSD",
          "type": "address"
        }
      ],
      "name": "setCUSD",
      "outputs": [],
      "stateMutability": "nonpayable",
      "type": "function"
    },
    {
      "inputs": [
        {
          "internalType": "address",
          "name": "_moolaMarketProxy",
          "type": "address"
        }
      ],
      "name": "setMoolaMarketProxy",
      "outputs": [],
      "stateMutability": "nonpayable",
      "type": "function"
    },
    {
      "inputs": [
        {
          "internalType": "address",
          "name": "_stakingPool",
          "type": "address"
        }
      ],
      "name": "setStakingPool",
      "outputs": [],
      "stateMutability": "nonpayable",
      "type": "function"
    },
    {
      "inputs": [
        {
          "internalType": "address",
          "name": "_stakingPool",
          "type": "address"
        }
      ],
      "name": "stakeInBestPool",
      "outputs": [],
      "stateMutability": "nonpayable",
      "type": "function"
    },
    {
      "inputs": [],
      "name": "stakingPool",
      "outputs": [
        {
          "internalType": "address",
          "name": "",
          "type": "address"
        }
      ],
      "stateMutability": "view",
      "type": "function"
    },
    {
      "inputs": [],
      "name": "totalStaked",
      "outputs": [
        {
          "internalType": "uint256",
          "name": "",
          "type": "uint256"
        }
      ],
      "stateMutability": "view",
      "type": "function"
    },
    {
      "inputs": [
        {
          "internalType": "address",
          "name": "newOwner",
          "type": "address"
        }
      ],
      "name": "transferOwnership",
      "outputs": [],
      "stateMutability": "nonpayable",
      "type": "function"
    },
    {
      "inputs": [],
      "name": "unpause",
      "outputs": [],
      "stateMutability": "nonpayable",
      "type": "function"
    },
    {
      "inputs": [
        {
          "internalType": "address",
          "name": "",
          "type": "address"
        }
      ],
      "name": "userStakes",
      "outputs": [
        {
          "internalType": "uint256",
          "name": "amount",
          "type": "uint256"
        },
        {
          "internalType": "uint256",
          "name": "timestamp",
          "type": "uint256"
        }
      ],
      "stateMutability": "view",
      "type": "function"
    },
    {
      "inputs": [
        {
          "internalType": "uint256",
          "name": "amount",
          "type": "uint256"
        }
      ],
      "name": "withdraw",
      "outputs": [],
      "stateMutability": "nonpayable",
      "type": "function"
    }
  ],
  "bytecode": "0x60806040523480156200001157600080fd5b5060405162002dd938038062002dd9833981810160405281019062000037919062000431565b33600073ffffffffffffffffffffffffffffffffffffffff168173ffffffffffffffffffffffffffffffffffffffff1603620000ad5760006040517f1e4fbdf7000000000000000000000000000000000000000000000000000000008152600401620000a491906200049e565b60405180910390fd5b620000be816200030360201b60201c565b50600180819055506000600260006101000a81548160ff021916908315150217905550600073ffffffffffffffffffffffffffffffffffffffff168373ffffffffffffffffffffffffffffffffffffffff160362000153576040517f08c379a00000000000000000000000000000000000000000000000000000000081526004016200014a906200051c565b60405180910390fd5b600073ffffffffffffffffffffffffffffffffffffffff168273ffffffffffffffffffffffffffffffffffffffff1603620001c5576040517f08c379a0000000000000000000000000000000000000000000000000000000008152600401620001bc906200058e565b60405180910390fd5b600073ffffffffffffffffffffffffffffffffffffffff168173ffffffffffffffffffffffffffffffffffffffff160362000237576040517f08c379a00000000000000000000000000000000000000000000000000000000081526004016200022e9062000626565b60405180910390fd5b82600260016101000a81548173ffffffffffffffffffffffffffffffffffffffff021916908373ffffffffffffffffffffffffffffffffffffffff16021790555081600360006101000a81548173ffffffffffffffffffffffffffffffffffffffff021916908373ffffffffffffffffffffffffffffffffffffffff16021790555080600560006101000a81548173ffffffffffffffffffffffffffffffffffffffff021916908373ffffffffffffffffffffffffffffffffffffffff16021790555050505062000648565b60008060009054906101000a900473ffffffffffffffffffffffffffffffffffffffff169050816000806101000a81548173ffffffffffffffffffffffffffffffffffffffff021916908373ffffffffffffffffffffffffffffffffffffffff1602179055508173ffffffffffffffffffffffffffffffffffffffff168173ffffffffffffffffffffffffffffffffffffffff167f8be0079c531659141344cd1fd0a4f28419497f9722a3daafe3b4186f6b6457e060405160405180910390a35050565b600080fd5b600073ffffffffffffffffffffffffffffffffffffffff82169050919050565b6000620003f982620003cc565b9050919050565b6200040b81620003ec565b81146200041757600080fd5b50565b6000815190506200042b8162000400565b92915050565b6000806000606084860312156200044d576200044c620003c7565b5b60006200045d868287016200041a565b935050602062000470868287016200041a565b925050604062000483868287016200041a565b9150509250925092565b6200049881620003ec565b82525050565b6000602082019050620004b560008301846200048d565b92915050565b600082825260208201905092915050565b7f496e76616c696420635553442061646472657373000000000000000000000000600082015250565b600062000504601483620004bb565b91506200051182620004cc565b602082019050919050565b600060208201905081810360008301526200053781620004f5565b9050919050565b7f496e76616c6964204149206167656e7420616464726573730000000000000000600082015250565b600062000576601883620004bb565b915062000583826200053e565b602082019050919050565b60006020820190508181036000830152620005a98162000567565b9050919050565b7f496e76616c6964204d6f6f6c61204d61726b65742070726f787920616464726560008201527f7373000000000000000000000000000000000000000000000000000000000000602082015250565b60006200060e602283620004bb565b91506200061b82620005b0565b604082019050919050565b600060208201905081810360008301526200064181620005ff565b9050919050565b61278180620006586000396000f3fe608060405234801561001057600080fd5b50600436106101575760003560e01c80636ebe941b116100c35780638da5cb5b1161007c5780638da5cb5b1461033e5780638da7ad231461035c578063a6d5b7321461038d578063b6b55f25146103ab578063bbadc93a146103c7578063f2fde38b146103f757610157565b80636ebe941b146102b8578063715018a6146102d457806379d84339146102de578063817b1cd2146102fa5780638456cb59146103185780638980f11f1461032257610157565b80632efa4bf8116101155780632efa4bf81461021e5780633028f63a1461023a57806339beab02146102565780633f4ba83a146102745780634d1898a41461027e5780635c975abb1461029a57610157565b80624804f41461015c578063078b0fb7146101785780630c56ae3b146101a85780631ad9e459146101c65780631fccf672146101e45780632e1a7d4d14610202575b600080fd5b61017660048036038101906101719190611d51565b610413565b005b610192600480360381019061018d9190611d51565b610756565b60405161019f9190611d97565b60405180910390f35b6101b06107fb565b6040516101bd9190611dc1565b60405180910390f35b6101ce610821565b6040516101db9190611dc1565b60405180910390f35b6101ec610847565b6040516101f99190611e3b565b60405180910390f35b61021c60048036038101906102179190611e82565b61086d565b005b61023860048036038101906102339190611d51565b610b54565b005b610254600480360381019061024f9190611d51565b610c52565b005b61025e610d50565b60405161026b9190611d97565b60405180910390f35b61027c610d56565b005b61029860048036038101906102939190611d51565b610d68565b005b6102a2611095565b6040516102af9190611eca565b60405180910390f35b6102d260048036038101906102cd9190611d51565b6110ac565b005b6102dc6111aa565b005b6102f860048036038101906102f39190611d51565b6111be565b005b6103026112bc565b60405161030f9190611d97565b60405180910390f35b6103206112c2565b005b61033c60048036038101906103379190611ee5565b6112d4565b005b6103466113a2565b6040516103539190611dc1565b60405180910390f35b61037660048036038101906103719190611d51565b6113cb565b604051610384929190611f25565b60405180910390f35b6103956113ef565b6040516103a29190611dc1565b60405180910390f35b6103c560048036038101906103c09190611e82565b611415565b005b6103e160048036038101906103dc9190611d51565b611607565b6040516103ee9190611d97565b60405180910390f35b610411600480360381019061040c9190611d51565b611653565b005b61041b6116d9565b61042361171f565b600360009054906101000a900473ffffffffffffffffffffffffffffffffffffffff1673ffffffffffffffffffffffffffffffffffffffff163373ffffffffffffffffffffffffffffffffffffffff16146104b3576040517f08c379a00000000000000000000000000000000000000000000000000000000081526004016104aa90611fab565b60405180910390fd5b600073ffffffffffffffffffffffffffffffffffffffff168173ffffffffffffffffffffffffffffffffffffffff1603610522576040517f08c379a000000000000000000000000000000000000000000000000000000000815260040161051990612017565b60405180910390fd5b600060085411610567576040517f08c379a000000000000000000000000000000000000000000000000000000000815260040161055e90612083565b60405180910390fd5b600060085460075461057991906120d2565b9050600560009054906101000a900473ffffffffffffffffffffffffffffffffffffffff1673ffffffffffffffffffffffffffffffffffffffff166369328dec600260019054906101000a900473ffffffffffffffffffffffffffffffffffffffff1683306040518463ffffffff1660e01b81526004016105fc93929190612106565b600060405180830381600087803b15801561061657600080fd5b505af115801561062a573d6000803e3d6000fd5b505050508173ffffffffffffffffffffffffffffffffffffffff1663a694fc3a826040518263ffffffff1660e01b81526004016106679190611d97565b600060405180830381600087803b15801561068157600080fd5b505af1158015610695573d6000803e3d6000fd5b5050505081600460006101000a81548173ffffffffffffffffffffffffffffffffffffffff021916908373ffffffffffffffffffffffffffffffffffffffff160217905550600460009054906101000a900473ffffffffffffffffffffffffffffffffffffffff1673ffffffffffffffffffffffffffffffffffffffff167fee9316440d6e2f8b6f1392efbb896bf3feb2161a7b417a2c0e28ab6f43dbbc09826040516107429190611d97565b60405180910390a250610753611760565b50565b6000600460009054906101000a900473ffffffffffffffffffffffffffffffffffffffff1673ffffffffffffffffffffffffffffffffffffffff166379ee54f7836040518263ffffffff1660e01b81526004016107b39190611dc1565b602060405180830381865afa1580156107d0573d6000803e3d6000fd5b505050506040513d601f19601f820116820180604052508101906107f49190612152565b9050919050565b600460009054906101000a900473ffffffffffffffffffffffffffffffffffffffff1681565b600560009054906101000a900473ffffffffffffffffffffffffffffffffffffffff1681565b600260019054906101000a900473ffffffffffffffffffffffffffffffffffffffff1681565b6108756116d9565b61087d61171f565b600081116108c0576040517f08c379a00000000000000000000000000000000000000000000000000000000081526004016108b7906121cb565b60405180910390fd5b80600660003373ffffffffffffffffffffffffffffffffffffffff1673ffffffffffffffffffffffffffffffffffffffff168152602001908152602001600020600001541015610945576040517f08c379a000000000000000000000000000000000000000000000000000000000815260040161093c90612237565b60405180910390fd5b600073ffffffffffffffffffffffffffffffffffffffff16600460009054906101000a900473ffffffffffffffffffffffffffffffffffffffff1673ffffffffffffffffffffffffffffffffffffffff16036109d6576040517f08c379a00000000000000000000000000000000000000000000000000000000081526004016109cd906122a3565b60405180910390fd5b80600660003373ffffffffffffffffffffffffffffffffffffffff1673ffffffffffffffffffffffffffffffffffffffff1681526020019081526020016000206000016000828254610a2891906120d2565b925050819055508060076000828254610a4191906120d2565b92505081905550600560009054906101000a900473ffffffffffffffffffffffffffffffffffffffff1673ffffffffffffffffffffffffffffffffffffffff166369328dec600260019054906101000a900473ffffffffffffffffffffffffffffffffffffffff1683336040518463ffffffff1660e01b8152600401610ac993929190612106565b600060405180830381600087803b158015610ae357600080fd5b505af1158015610af7573d6000803e3d6000fd5b505050503373ffffffffffffffffffffffffffffffffffffffff167f7084f5476618d8e60b11ef0d7d3f06914655adb8793e28ff7f018d4c76d505d582604051610b419190611d97565b60405180910390a2610b51611760565b50565b610b5c611769565b600073ffffffffffffffffffffffffffffffffffffffff168173ffffffffffffffffffffffffffffffffffffffff1603610bcb576040517f08c379a0000000000000000000000000000000000000000000000000000000008152600401610bc29061230f565b60405180910390fd5b80600260016101000a81548173ffffffffffffffffffffffffffffffffffffffff021916908373ffffffffffffffffffffffffffffffffffffffff1602179055508073ffffffffffffffffffffffffffffffffffffffff167f3fbcf2249f07d9ae2831d05e4d6ca2dfa2f737fbeaee1071adb7228c7ca9783460405160405180910390a250565b610c5a611769565b600073ffffffffffffffffffffffffffffffffffffffff168173ffffffffffffffffffffffffffffffffffffffff1603610cc9576040517f08c379a0000000000000000000000000000000000000000000000000000000008152600401610cc09061237b565b60405180910390fd5b80600460006101000a81548173ffffffffffffffffffffffffffffffffffffffff021916908373ffffffffffffffffffffffffffffffffffffffff1602179055508073ffffffffffffffffffffffffffffffffffffffff167f1984fdec4ffcca0907c88ef56716efae09a57013355072d097e081708438542460405160405180910390a250565b60085481565b610d5e611769565b610d666117f0565b565b600360009054906101000a900473ffffffffffffffffffffffffffffffffffffffff1673ffffffffffffffffffffffffffffffffffffffff163373ffffffffffffffffffffffffffffffffffffffff1614610df8576040517f08c379a0000000000000000000000000000000000000000000000000000000008152600401610def90611fab565b60405180910390fd5b600073ffffffffffffffffffffffffffffffffffffffff168173ffffffffffffffffffffffffffffffffffffffff1603610e67576040517f08c379a0000000000000000000000000000000000000000000000000000000008152600401610e5e9061237b565b60405180910390fd5b600060085411610eac576040517f08c379a0000000000000000000000000000000000000000000000000000000008152600401610ea3906123e7565b60405180910390fd5b80600460006101000a81548173ffffffffffffffffffffffffffffffffffffffff021916908373ffffffffffffffffffffffffffffffffffffffff16021790555060006008549050610f63600460009054906101000a900473ffffffffffffffffffffffffffffffffffffffff1682600260019054906101000a900473ffffffffffffffffffffffffffffffffffffffff1673ffffffffffffffffffffffffffffffffffffffff166118539092919063ffffffff16565b600560009054906101000a900473ffffffffffffffffffffffffffffffffffffffff1673ffffffffffffffffffffffffffffffffffffffff1663e8eda9df600260019054906101000a900473ffffffffffffffffffffffffffffffffffffffff16833060006040518563ffffffff1660e01b8152600401610fe79493929190612450565b600060405180830381600087803b15801561100157600080fd5b505af1158015611015573d6000803e3d6000fd5b505050506000600881905550600460009054906101000a900473ffffffffffffffffffffffffffffffffffffffff1673ffffffffffffffffffffffffffffffffffffffff167f9e71bc8eea02a63969f509818f2dafb9254532904319f9dbda79b67bd34a5f3d826040516110899190611d97565b60405180910390a25050565b6000600260009054906101000a900460ff16905090565b6110b4611769565b600073ffffffffffffffffffffffffffffffffffffffff168173ffffffffffffffffffffffffffffffffffffffff1603611123576040517f08c379a000000000000000000000000000000000000000000000000000000000815260040161111a906124e1565b60405180910390fd5b80600360006101000a81548173ffffffffffffffffffffffffffffffffffffffff021916908373ffffffffffffffffffffffffffffffffffffffff1602179055508073ffffffffffffffffffffffffffffffffffffffff167f91fb2ab6ae2c97b27c8675b15c080c2a5c59357a2795737c9590bdefa0539ffd60405160405180910390a250565b6111b2611769565b6111bc60006118ef565b565b6111c6611769565b600073ffffffffffffffffffffffffffffffffffffffff168173ffffffffffffffffffffffffffffffffffffffff1603611235576040517f08c379a000000000000000000000000000000000000000000000000000000000815260040161122c90612573565b60405180910390fd5b80600560006101000a81548173ffffffffffffffffffffffffffffffffffffffff021916908373ffffffffffffffffffffffffffffffffffffffff1602179055508073ffffffffffffffffffffffffffffffffffffffff167f12ec28b03fe783c9fdd91fc146ca116cb22d4ce9e1354405d21cfd810f1f3e3c60405160405180910390a250565b60075481565b6112ca611769565b6112d26119b3565b565b6112dc611769565b600260019054906101000a900473ffffffffffffffffffffffffffffffffffffffff1673ffffffffffffffffffffffffffffffffffffffff168273ffffffffffffffffffffffffffffffffffffffff160361136c576040517f08c379a0000000000000000000000000000000000000000000000000000000008152600401611363906125df565b60405180910390fd5b61139e6113776113a2565b828473ffffffffffffffffffffffffffffffffffffffff16611a169092919063ffffffff16565b5050565b60008060009054906101000a900473ffffffffffffffffffffffffffffffffffffffff16905090565b60066020528060005260406000206000915090508060000154908060010154905082565b600360009054906101000a900473ffffffffffffffffffffffffffffffffffffffff1681565b61141d61171f565b6114256116d9565b60008111611468576040517f08c379a000000000000000000000000000000000000000000000000000000000815260040161145f9061264b565b60405180910390fd5b6000600660003373ffffffffffffffffffffffffffffffffffffffff1673ffffffffffffffffffffffffffffffffffffffff168152602001908152602001600020600001540361152257604051806040016040528082815260200142815250600660003373ffffffffffffffffffffffffffffffffffffffff1673ffffffffffffffffffffffffffffffffffffffff168152602001908152602001600020600082015181600001556020820151816001015590505061157c565b80600660003373ffffffffffffffffffffffffffffffffffffffff1673ffffffffffffffffffffffffffffffffffffffff1681526020019081526020016000206000016000828254611574919061266b565b925050819055505b806007600082825461158e919061266b565b9250508190555080600860008282546115a7919061266b565b925050819055503373ffffffffffffffffffffffffffffffffffffffff167f2da466a7b24304f47e87fa2e1e5a81b9831ce54fec19055ce277ca2f39ba42c4826040516115f49190611d97565b60405180910390a2611604611760565b50565b6000600660008373ffffffffffffffffffffffffffffffffffffffff1673ffffffffffffffffffffffffffffffffffffffff168152602001908152602001600020600001549050919050565b61165b611769565b600073ffffffffffffffffffffffffffffffffffffffff168173ffffffffffffffffffffffffffffffffffffffff16036116cd5760006040517f1e4fbdf70000000000000000000000000000000000000000000000000000000081526004016116c49190611dc1565b60405180910390fd5b6116d6816118ef565b50565b600260015403611715576040517f3ee5aeb500000000000000000000000000000000000000000000000000000000815260040160405180910390fd5b6002600181905550565b611727611095565b1561175e576040517fd93c066500000000000000000000000000000000000000000000000000000000815260040160405180910390fd5b565b60018081905550565b611771611a95565b73ffffffffffffffffffffffffffffffffffffffff1661178f6113a2565b73ffffffffffffffffffffffffffffffffffffffff16146117ee576117b2611a95565b6040517f118cdaa70000000000000000000000000000000000000000000000000000000081526004016117e59190611dc1565b60405180910390fd5b565b6117f8611a9d565b6000600260006101000a81548160ff0219169083151502179055507f5db9ee0a495bf2e6ff9c91a7834c1ba4fdd244a5e8aa4e537bd38aeae4b073aa61183c611a95565b6040516118499190611dc1565b60405180910390a1565b60008373ffffffffffffffffffffffffffffffffffffffff1663dd62ed3e30856040518363ffffffff1660e01b815260040161189092919061269f565b602060405180830381865afa1580156118ad573d6000803e3d6000fd5b505050506040513d601f19601f820116820180604052508101906118d19190612152565b90506118e9848484846118e4919061266b565b611add565b50505050565b60008060009054906101000a900473ffffffffffffffffffffffffffffffffffffffff169050816000806101000a81548173ffffffffffffffffffffffffffffffffffffffff021916908373ffffffffffffffffffffffffffffffffffffffff1602179055508173ffffffffffffffffffffffffffffffffffffffff168173ffffffffffffffffffffffffffffffffffffffff167f8be0079c531659141344cd1fd0a4f28419497f9722a3daafe3b4186f6b6457e060405160405180910390a35050565b6119bb61171f565b6001600260006101000a81548160ff0219169083151502179055507f62e78cea01bee320cd4e420270b5ea74000d11b0c9f74754ebdbfc544b05a2586119ff611a95565b604051611a0c9190611dc1565b60405180910390a1565b611a90838473ffffffffffffffffffffffffffffffffffffffff1663a9059cbb8585604051602401611a499291906126c8565b604051602081830303815290604052915060e01b6020820180517bffffffffffffffffffffffffffffffffffffffffffffffffffffffff8381831617835250505050611bec565b505050565b600033905090565b611aa5611095565b611adb576040517f8dfc202b00000000000000000000000000000000000000000000000000000000815260040160405180910390fd5b565b60008373ffffffffffffffffffffffffffffffffffffffff1663095ea7b38484604051602401611b0e9291906126c8565b604051602081830303815290604052915060e01b6020820180517bffffffffffffffffffffffffffffffffffffffffffffffffffffffff83818316178352505050509050611b5c8482611c8e565b611be657611bdb848573ffffffffffffffffffffffffffffffffffffffff1663095ea7b3866000604051602401611b94929190612722565b604051602081830303815290604052915060e01b6020820180517bffffffffffffffffffffffffffffffffffffffffffffffffffffffff8381831617835250505050611bec565b611be58482611bec565b5b50505050565b600080602060008451602086016000885af180611c0f576040513d6000823e3d81fd5b3d925060005191505060008214611c2a576001811415611c46565b60008473ffffffffffffffffffffffffffffffffffffffff163b145b15611c8857836040517f5274afe7000000000000000000000000000000000000000000000000000000008152600401611c7f9190611dc1565b60405180910390fd5b50505050565b6000806000806020600086516020880160008a5af192503d91506000519050828015611ce3575060008214611cc65760018114611ce2565b60008673ffffffffffffffffffffffffffffffffffffffff163b115b5b935050505092915050565b600080fd5b600073ffffffffffffffffffffffffffffffffffffffff82169050919050565b6000611d1e82611cf3565b9050919050565b611d2e81611d13565b8114611d3957600080fd5b50565b600081359050611d4b81611d25565b92915050565b600060208284031215611d6757611d66611cee565b5b6000611d7584828501611d3c565b91505092915050565b6000819050919050565b611d9181611d7e565b82525050565b6000602082019050611dac6000830184611d88565b92915050565b611dbb81611d13565b82525050565b6000602082019050611dd66000830184611db2565b92915050565b6000819050919050565b6000611e01611dfc611df784611cf3565b611ddc565b611cf3565b9050919050565b6000611e1382611de6565b9050919050565b6000611e2582611e08565b9050919050565b611e3581611e1a565b82525050565b6000602082019050611e506000830184611e2c565b92915050565b611e5f81611d7e565b8114611e6a57600080fd5b50565b600081359050611e7c81611e56565b92915050565b600060208284031215611e9857611e97611cee565b5b6000611ea684828501611e6d565b91505092915050565b60008115159050919050565b611ec481611eaf565b82525050565b6000602082019050611edf6000830184611ebb565b92915050565b60008060408385031215611efc57611efb611cee565b5b6000611f0a85828601611d3c565b9250506020611f1b85828601611e6d565b9150509250929050565b6000604082019050611f3a6000830185611d88565b611f476020830184611d88565b9392505050565b600082825260208201905092915050565b7f4f6e6c79204149204167656e742063616e2063616c6c20746869730000000000600082015250565b6000611f95601b83611f4e565b9150611fa082611f5f565b602082019050919050565b60006020820190508181036000830152611fc481611f88565b9050919050565b7f496e76616c696420636f6e747261637420616464726573732e00000000000000600082015250565b6000612001601983611f4e565b915061200c82611fcb565b602082019050919050565b6000602082019050818103600083015261203081611ff4565b9050919050565b7f4e6f20756e7374616b65642066756e647320746f207265616c6c6f636174652e600082015250565b600061206d602083611f4e565b915061207882612037565b602082019050919050565b6000602082019050818103600083015261209c81612060565b9050919050565b7f4e487b7100000000000000000000000000000000000000000000000000000000600052601160045260246000fd5b60006120dd82611d7e565b91506120e883611d7e565b9250828203905081811115612100576120ff6120a3565b5b92915050565b600060608201905061211b6000830186611db2565b6121286020830185611d88565b6121356040830184611db2565b949350505050565b60008151905061214c81611e56565b92915050565b60006020828403121561216857612167611cee565b5b60006121768482850161213d565b91505092915050565b7f416d6f756e74206d7573742062652067726561746572207468616e207a65726f600082015250565b60006121b5602083611f4e565b91506121c08261217f565b602082019050919050565b600060208201905081810360008301526121e4816121a8565b9050919050565b7f4e6f7420656e6f7567682062616c616e63650000000000000000000000000000600082015250565b6000612221601283611f4e565b915061222c826121eb565b602082019050919050565b6000602082019050818103600083015261225081612214565b9050919050565b7f5374616b696e6720706f6f6c206e6f7420736574000000000000000000000000600082015250565b600061228d601483611f4e565b915061229882612257565b602082019050919050565b600060208201905081810360008301526122bc81612280565b9050919050565b7f496e76616c696420635553442061646472657373000000000000000000000000600082015250565b60006122f9601483611f4e565b9150612304826122c3565b602082019050919050565b60006020820190508181036000830152612328816122ec565b9050919050565b7f496e76616c6964207374616b696e6720706f6f6c206164647265737300000000600082015250565b6000612365601c83611f4e565b91506123708261232f565b602082019050919050565b6000602082019050818103600083015261239481612358565b9050919050565b7f4e6f20756e7374616b65642066756e647320746f207374616b65000000000000600082015250565b60006123d1601a83611f4e565b91506123dc8261239b565b602082019050919050565b60006020820190508181036000830152612400816123c4565b9050919050565b6000819050919050565b600061ffff82169050919050565b600061243a61243561243084612407565b611ddc565b612411565b9050919050565b61244a8161241f565b82525050565b60006080820190506124656000830187611db2565b6124726020830186611d88565b61247f6040830185611db2565b61248c6060830184612441565b95945050505050565b7f496e76616c6964204149206167656e7420616464726573730000000000000000600082015250565b60006124cb601883611f4e565b91506124d682612495565b602082019050919050565b600060208201905081810360008301526124fa816124be565b9050919050565b7f496e76616c6964204d6f6f6c61204d61726b65742070726f787920616464726560008201527f7373000000000000000000000000000000000000000000000000000000000000602082015250565b600061255d602283611f4e565b915061256882612501565b604082019050919050565b6000602082019050818103600083015261258c81612550565b9050919050565b7f43616e6e6f74207265636f766572206355534400000000000000000000000000600082015250565b60006125c9601383611f4e565b91506125d482612593565b602082019050919050565b600060208201905081810360008301526125f8816125bc565b9050919050565b7f43616e6e6f74206465706f736974203000000000000000000000000000000000600082015250565b6000612635601083611f4e565b9150612640826125ff565b602082019050919050565b6000602082019050818103600083015261266481612628565b9050919050565b600061267682611d7e565b915061268183611d7e565b9250828201905080821115612699576126986120a3565b5b92915050565b60006040820190506126b46000830185611db2565b6126c16020830184611db2565b9392505050565b60006040820190506126dd6000830185611db2565b6126ea6020830184611d88565b9392505050565b600061270c61270761270284612407565b611ddc565b611d7e565b9050919050565b61271c816126f1565b82525050565b60006040820190506127376000830185611db2565b6127446020830184612713565b939250505056fea264697066735822122089054fa5416b2a440dff59a26e5f43cb5f32d522019b60097a5d96cbd3a80e6f64736f6c63430008140033",
  "linkReferences": {},
  "deployedLinkReferences": {}
}