{
  "_format": "hh-sol-artifact-1",
  "contractName": "Intel",
  "sourceName": "contracts/Intel.sol",
  "abi": [
    {
      "inputs": [
        {
          "internalType": "address",
          "name": "_cUSD",
          "type": "address"
        },
        {
          "internalType": "address",
          "name": "_aiAgent",
          "type": "address"
        },
        {
          "internalType": "address",
          "name": "_moolaMarketProxy",
          "type": "address"
        }
      ],
      "stateMutability": "nonpayable",
      "type": "constructor"
    },
    {
      "inputs": [],
      "name": "EnforcedPause",
      "type": "error"
    },
    {
      "inputs": [],
      "name": "ExpectedPause",
      "type": "error"
    },
    {
      "inputs": [
        {
          "internalType": "address",
          "name": "owner",
          "type": "address"
        }
      ],
      "name": "OwnableInvalidOwner",
      "type": "error"
    },
    {
      "inputs": [
        {
          "internalType": "address",
          "name": "account",
          "type": "address"
        }
      ],
      "name": "OwnableUnauthorizedAccount",
      "type": "error"
    },
    {
      "inputs": [],
      "name": "ReentrancyGuardReentrantCall",
      "type": "error"
    },
    {
      "inputs": [
        {
          "internalType": "address",
          "name": "token",
          "type": "address"
        }
      ],
      "name": "SafeERC20FailedOperation",
      "type": "error"
    },
    {
      "anonymous": false,
      "inputs": [
        {
          "indexed": true,
          "internalType": "address",
          "name": "newAIAgent",
          "type": "address"
        }
      ],
      "name": "AIAgentUpdated",
      "type": "event"
    },
    {
      "anonymous": false,
      "inputs": [
        {
          "indexed": true,
          "internalType": "address",
          "name": "newCUSD",
          "type": "address"
        }
      ],
      "name": "CUSDUpdated",
      "type": "event"
    },
    {
      "anonymous": false,
      "inputs": [
        {
          "indexed": true,
          "internalType": "address",
          "name": "user",
          "type": "address"
        },
        {
          "indexed": false,
          "internalType": "uint256",
          "name": "amount",
          "type": "uint256"
        }
      ],
      "name": "Deposited",
      "type": "event"
    },
    {
      "anonymous": false,
      "inputs": [
        {
          "indexed": true,
          "internalType": "address",
          "name": "newMoolaMarketProxy",
          "type": "address"
        }
      ],
      "name": "MoolaMarketProxyUpdated",
      "type": "event"
    },
    {
      "anonymous": false,
      "inputs": [
        {
          "indexed": true,
          "internalType": "address",
          "name": "previousOwner",
          "type": "address"
        },
        {
          "indexed": true,
          "internalType": "address",
          "name": "newOwner",
          "type": "address"
        }
      ],
      "name": "OwnershipTransferred",
      "type": "event"
    },
    {
      "anonymous": false,
      "inputs": [
        {
          "indexed": false,
          "internalType": "address",
          "name": "account",
          "type": "address"
        }
      ],
      "name": "Paused",
      "type": "event"
    },
    {
      "anonymous": false,
      "inputs": [
        {
          "indexed": true,
          "internalType": "address",
          "name": "pool",
          "type": "address"
        },
        {
          "indexed": false,
          "internalType": "uint256",
          "name": "amount",
          "type": "uint256"
        }
      ],
      "name": "Staked",
      "type": "event"
    },
    {
      "anonymous": false,
      "inputs": [
        {
          "indexed": true,
          "internalType": "address",
          "name": "newStakingPool",
          "type": "address"
        }
      ],
      "name": "StakingPoolUpdated",
      "type": "event"
    },
    {
      "anonymous": false,
      "inputs": [
        {
          "indexed": false,
          "internalType": "address",
          "name": "account",
          "type": "address"
        }
      ],
      "name": "Unpaused",
      "type": "event"
    },
    {
      "anonymous": false,
      "inputs": [
        {
          "indexed": true,
          "internalType": "address",
          "name": "user",
          "type": "address"
        },
        {
          "indexed": false,
          "internalType": "uint256",
          "name": "amount",
          "type": "uint256"
        }
      ],
      "name": "Withdrawn",
      "type": "event"
    },
    {
      "inputs": [],
      "name": "aiAgent",
      "outputs": [
        {
          "internalType": "address",
          "name": "",
          "type": "address"
        }
      ],
      "stateMutability": "view",
      "type": "function"
    },
    {
      "inputs": [],
      "name": "cUSD",
      "outputs": [
        {
          "internalType": "contract IERC20",
          "name": "",
          "type": "address"
        }
      ],
      "stateMutability": "view",
      "type": "function"
    },
    {
      "inputs": [],
      "name": "contractUnstakedBalance",
      "outputs": [
        {
          "internalType": "uint256",
          "name": "",
          "type": "uint256"
        }
      ],
      "stateMutability": "view",
      "type": "function"
    },
    {
      "inputs": [
        {
          "internalType": "uint256",
          "name": "amount",
          "type": "uint256"
        }
      ],
      "name": "deposit",
      "outputs": [],
      "stateMutability": "nonpayable",
      "type": "function"
    },
    {
      "inputs": [
        {
          "internalType": "address",
          "name": "user",
          "type": "address"
        }
      ],
      "name": "getUserRewards",
      "outputs": [
        {
          "internalType": "uint256",
          "name": "",
          "type": "uint256"
        }
      ],
      "stateMutability": "view",
      "type": "function"
    },
    {
      "inputs": [],
      "name": "moolaMarketProxy",
      "outputs": [
        {
          "internalType": "address",
          "name": "",
          "type": "address"
        }
      ],
      "stateMutability": "view",
      "type": "function"
    },
    {
      "inputs": [],
      "name": "owner",
      "outputs": [
        {
          "internalType": "address",
          "name": "",
          "type": "address"
        }
      ],
      "stateMutability": "view",
      "type": "function"
    },
    {
      "inputs": [],
      "name": "pause",
      "outputs": [],
      "stateMutability": "nonpayable",
      "type": "function"
    },
    {
      "inputs": [],
      "name": "paused",
      "outputs": [
        {
          "internalType": "bool",
          "name": "",
          "type": "bool"
        }
      ],
      "stateMutability": "view",
      "type": "function"
    },
    {
      "inputs": [
        {
          "internalType": "address",
          "name": "tokenAddress",
          "type": "address"
        },
        {
          "internalType": "uint256",
          "name": "amount",
          "type": "uint256"
        }
      ],
      "name": "recoverERC20",
      "outputs": [],
      "stateMutability": "nonpayable",
      "type": "function"
    },
    {
      "inputs": [],
      "name": "renounceOwnership",
      "outputs": [],
      "stateMutability": "nonpayable",
      "type": "function"
    },
    {
      "inputs": [
        {
          "internalType": "address",
          "name": "_aiAgent",
          "type": "address"
        }
      ],
      "name": "setAIAgent",
      "outputs": [],
      "stateMutability": "nonpayable",
      "type": "function"
    },
    {
      "inputs": [
        {
          "internalType": "address",
          "name": "_cUSD",
          "type": "address"
        }
      ],
      "name": "setCUSD",
      "outputs": [],
      "stateMutability": "nonpayable",
      "type": "function"
    },
    {
      "inputs": [
        {
          "internalType": "address",
          "name": "_moolaMarketProxy",
          "type": "address"
        }
      ],
      "name": "setMoolaMarketProxy",
      "outputs": [],
      "stateMutability": "nonpayable",
      "type": "function"
    },
    {
      "inputs": [
        {
          "internalType": "address",
          "name": "_stakingPool",
          "type": "address"
        }
      ],
      "name": "setStakingPool",
      "outputs": [],
      "stateMutability": "nonpayable",
      "type": "function"
    },
    {
      "inputs": [
        {
          "internalType": "address",
          "name": "_stakingPool",
          "type": "address"
        }
      ],
      "name": "stakeInBestPool",
      "outputs": [],
      "stateMutability": "nonpayable",
      "type": "function"
    },
    {
      "inputs": [],
      "name": "stakingPool",
      "outputs": [
        {
          "internalType": "address",
          "name": "",
          "type": "address"
        }
      ],
      "stateMutability": "view",
      "type": "function"
    },
    {
      "inputs": [],
      "name": "totalStaked",
      "outputs": [
        {
          "internalType": "uint256",
          "name": "",
          "type": "uint256"
        }
      ],
      "stateMutability": "view",
      "type": "function"
    },
    {
      "inputs": [
        {
          "internalType": "address",
          "name": "newOwner",
          "type": "address"
        }
      ],
      "name": "transferOwnership",
      "outputs": [],
      "stateMutability": "nonpayable",
      "type": "function"
    },
    {
      "inputs": [],
      "name": "unpause",
      "outputs": [],
      "stateMutability": "nonpayable",
      "type": "function"
    },
    {
      "inputs": [
        {
          "internalType": "address",
          "name": "",
          "type": "address"
        }
      ],
      "name": "userStakes",
      "outputs": [
        {
          "internalType": "uint256",
          "name": "amount",
          "type": "uint256"
        },
        {
          "internalType": "uint256",
          "name": "timestamp",
          "type": "uint256"
        }
      ],
      "stateMutability": "view",
      "type": "function"
    },
    {
      "inputs": [
        {
          "internalType": "uint256",
          "name": "amount",
          "type": "uint256"
        }
      ],
      "name": "withdraw",
      "outputs": [],
      "stateMutability": "nonpayable",
      "type": "function"
    }
  ],
  "bytecode": "0x60806040523480156200001157600080fd5b506040516200291138038062002911833981810160405281019062000037919062000431565b33600073ffffffffffffffffffffffffffffffffffffffff168173ffffffffffffffffffffffffffffffffffffffff1603620000ad5760006040517f1e4fbdf7000000000000000000000000000000000000000000000000000000008152600401620000a491906200049e565b60405180910390fd5b620000be816200030360201b60201c565b50600180819055506000600260006101000a81548160ff021916908315150217905550600073ffffffffffffffffffffffffffffffffffffffff168373ffffffffffffffffffffffffffffffffffffffff160362000153576040517f08c379a00000000000000000000000000000000000000000000000000000000081526004016200014a906200051c565b60405180910390fd5b600073ffffffffffffffffffffffffffffffffffffffff168273ffffffffffffffffffffffffffffffffffffffff1603620001c5576040517f08c379a0000000000000000000000000000000000000000000000000000000008152600401620001bc906200058e565b60405180910390fd5b600073ffffffffffffffffffffffffffffffffffffffff168173ffffffffffffffffffffffffffffffffffffffff160362000237576040517f08c379a00000000000000000000000000000000000000000000000000000000081526004016200022e9062000626565b60405180910390fd5b82600260016101000a81548173ffffffffffffffffffffffffffffffffffffffff021916908373ffffffffffffffffffffffffffffffffffffffff16021790555081600360006101000a81548173ffffffffffffffffffffffffffffffffffffffff021916908373ffffffffffffffffffffffffffffffffffffffff16021790555080600560006101000a81548173ffffffffffffffffffffffffffffffffffffffff021916908373ffffffffffffffffffffffffffffffffffffffff16021790555050505062000648565b60008060009054906101000a900473ffffffffffffffffffffffffffffffffffffffff169050816000806101000a81548173ffffffffffffffffffffffffffffffffffffffff021916908373ffffffffffffffffffffffffffffffffffffffff1602179055508173ffffffffffffffffffffffffffffffffffffffff168173ffffffffffffffffffffffffffffffffffffffff167f8be0079c531659141344cd1fd0a4f28419497f9722a3daafe3b4186f6b6457e060405160405180910390a35050565b600080fd5b600073ffffffffffffffffffffffffffffffffffffffff82169050919050565b6000620003f982620003cc565b9050919050565b6200040b81620003ec565b81146200041757600080fd5b50565b6000815190506200042b8162000400565b92915050565b6000806000606084860312156200044d576200044c620003c7565b5b60006200045d868287016200041a565b935050602062000470868287016200041a565b925050604062000483868287016200041a565b9150509250925092565b6200049881620003ec565b82525050565b6000602082019050620004b560008301846200048d565b92915050565b600082825260208201905092915050565b7f496e76616c696420635553442061646472657373000000000000000000000000600082015250565b600062000504601483620004bb565b91506200051182620004cc565b602082019050919050565b600060208201905081810360008301526200053781620004f5565b9050919050565b7f496e76616c6964204149206167656e7420616464726573730000000000000000600082015250565b600062000576601883620004bb565b915062000583826200053e565b602082019050919050565b60006020820190508181036000830152620005a98162000567565b9050919050565b7f496e76616c6964204d6f6f6c61204d61726b65742070726f787920616464726560008201527f7373000000000000000000000000000000000000000000000000000000000000602082015250565b60006200060e602283620004bb565b91506200061b82620005b0565b604082019050919050565b600060208201905081810360008301526200064181620005ff565b9050919050565b6122b980620006586000396000f3fe608060405234801561001057600080fd5b50600436106101425760003560e01c80636ebe941b116100b85780638980f11f1161007c5780638980f11f146102f15780638da5cb5b1461030d5780638da7ad231461032b578063a6d5b7321461035c578063b6b55f251461037a578063f2fde38b1461039657610142565b80636ebe941b14610287578063715018a6146102a357806379d84339146102ad578063817b1cd2146102c95780638456cb59146102e757610142565b80632efa4bf81161010a5780632efa4bf8146101ed5780633028f63a1461020957806339beab02146102255780633f4ba83a146102435780634d1898a41461024d5780635c975abb1461026957610142565b8063078b0fb7146101475780630c56ae3b146101775780631ad9e459146101955780631fccf672146101b35780632e1a7d4d146101d1575b600080fd5b610161600480360381019061015c9190611961565b6103b2565b60405161016e91906119a7565b60405180910390f35b61017f610457565b60405161018c91906119d1565b60405180910390f35b61019d61047d565b6040516101aa91906119d1565b60405180910390f35b6101bb6104a3565b6040516101c89190611a4b565b60405180910390f35b6101eb60048036038101906101e69190611a92565b6104c9565b005b61020760048036038101906102029190611961565b6107b0565b005b610223600480360381019061021e9190611961565b6108ae565b005b61022d6109ac565b60405161023a91906119a7565b60405180910390f35b61024b6109b2565b005b61026760048036038101906102629190611961565b6109c4565b005b610271610cf1565b60405161027e9190611ada565b60405180910390f35b6102a1600480360381019061029c9190611961565b610d08565b005b6102ab610e06565b005b6102c760048036038101906102c29190611961565b610e1a565b005b6102d1610f18565b6040516102de91906119a7565b60405180910390f35b6102ef610f1e565b005b61030b60048036038101906103069190611af5565b610f30565b005b610315610ffe565b60405161032291906119d1565b60405180910390f35b61034560048036038101906103409190611961565b611027565b604051610353929190611b35565b60405180910390f35b61036461104b565b60405161037191906119d1565b60405180910390f35b610394600480360381019061038f9190611a92565b611071565b005b6103b060048036038101906103ab9190611961565b611263565b005b6000600460009054906101000a900473ffffffffffffffffffffffffffffffffffffffff1673ffffffffffffffffffffffffffffffffffffffff166379ee54f7836040518263ffffffff1660e01b815260040161040f91906119d1565b602060405180830381865afa15801561042c573d6000803e3d6000fd5b505050506040513d601f19601f820116820180604052508101906104509190611b73565b9050919050565b600460009054906101000a900473ffffffffffffffffffffffffffffffffffffffff1681565b600560009054906101000a900473ffffffffffffffffffffffffffffffffffffffff1681565b600260019054906101000a900473ffffffffffffffffffffffffffffffffffffffff1681565b6104d16112e9565b6104d961132f565b6000811161051c576040517f08c379a000000000000000000000000000000000000000000000000000000000815260040161051390611bfd565b60405180910390fd5b80600660003373ffffffffffffffffffffffffffffffffffffffff1673ffffffffffffffffffffffffffffffffffffffff1681526020019081526020016000206000015410156105a1576040517f08c379a000000000000000000000000000000000000000000000000000000000815260040161059890611c69565b60405180910390fd5b600073ffffffffffffffffffffffffffffffffffffffff16600460009054906101000a900473ffffffffffffffffffffffffffffffffffffffff1673ffffffffffffffffffffffffffffffffffffffff1603610632576040517f08c379a000000000000000000000000000000000000000000000000000000000815260040161062990611cd5565b60405180910390fd5b80600660003373ffffffffffffffffffffffffffffffffffffffff1673ffffffffffffffffffffffffffffffffffffffff16815260200190815260200160002060000160008282546106849190611d24565b92505081905550806007600082825461069d9190611d24565b92505081905550600560009054906101000a900473ffffffffffffffffffffffffffffffffffffffff1673ffffffffffffffffffffffffffffffffffffffff166369328dec600260019054906101000a900473ffffffffffffffffffffffffffffffffffffffff1683336040518463ffffffff1660e01b815260040161072593929190611d58565b600060405180830381600087803b15801561073f57600080fd5b505af1158015610753573d6000803e3d6000fd5b505050503373ffffffffffffffffffffffffffffffffffffffff167f7084f5476618d8e60b11ef0d7d3f06914655adb8793e28ff7f018d4c76d505d58260405161079d91906119a7565b60405180910390a26107ad611370565b50565b6107b8611379565b600073ffffffffffffffffffffffffffffffffffffffff168173ffffffffffffffffffffffffffffffffffffffff1603610827576040517f08c379a000000000000000000000000000000000000000000000000000000000815260040161081e90611ddb565b60405180910390fd5b80600260016101000a81548173ffffffffffffffffffffffffffffffffffffffff021916908373ffffffffffffffffffffffffffffffffffffffff1602179055508073ffffffffffffffffffffffffffffffffffffffff167f3fbcf2249f07d9ae2831d05e4d6ca2dfa2f737fbeaee1071adb7228c7ca9783460405160405180910390a250565b6108b6611379565b600073ffffffffffffffffffffffffffffffffffffffff168173ffffffffffffffffffffffffffffffffffffffff1603610925576040517f08c379a000000000000000000000000000000000000000000000000000000000815260040161091c90611e47565b60405180910390fd5b80600460006101000a81548173ffffffffffffffffffffffffffffffffffffffff021916908373ffffffffffffffffffffffffffffffffffffffff1602179055508073ffffffffffffffffffffffffffffffffffffffff167f1984fdec4ffcca0907c88ef56716efae09a57013355072d097e081708438542460405160405180910390a250565b60085481565b6109ba611379565b6109c2611400565b565b600360009054906101000a900473ffffffffffffffffffffffffffffffffffffffff1673ffffffffffffffffffffffffffffffffffffffff163373ffffffffffffffffffffffffffffffffffffffff1614610a54576040517f08c379a0000000000000000000000000000000000000000000000000000000008152600401610a4b90611eb3565b60405180910390fd5b600073ffffffffffffffffffffffffffffffffffffffff168173ffffffffffffffffffffffffffffffffffffffff1603610ac3576040517f08c379a0000000000000000000000000000000000000000000000000000000008152600401610aba90611e47565b60405180910390fd5b600060085411610b08576040517f08c379a0000000000000000000000000000000000000000000000000000000008152600401610aff90611f1f565b60405180910390fd5b80600460006101000a81548173ffffffffffffffffffffffffffffffffffffffff021916908373ffffffffffffffffffffffffffffffffffffffff16021790555060006008549050610bbf600460009054906101000a900473ffffffffffffffffffffffffffffffffffffffff1682600260019054906101000a900473ffffffffffffffffffffffffffffffffffffffff1673ffffffffffffffffffffffffffffffffffffffff166114639092919063ffffffff16565b600560009054906101000a900473ffffffffffffffffffffffffffffffffffffffff1673ffffffffffffffffffffffffffffffffffffffff1663e8eda9df600260019054906101000a900473ffffffffffffffffffffffffffffffffffffffff16833060006040518563ffffffff1660e01b8152600401610c439493929190611f88565b600060405180830381600087803b158015610c5d57600080fd5b505af1158015610c71573d6000803e3d6000fd5b505050506000600881905550600460009054906101000a900473ffffffffffffffffffffffffffffffffffffffff1673ffffffffffffffffffffffffffffffffffffffff167f9e71bc8eea02a63969f509818f2dafb9254532904319f9dbda79b67bd34a5f3d82604051610ce591906119a7565b60405180910390a25050565b6000600260009054906101000a900460ff16905090565b610d10611379565b600073ffffffffffffffffffffffffffffffffffffffff168173ffffffffffffffffffffffffffffffffffffffff1603610d7f576040517f08c379a0000000000000000000000000000000000000000000000000000000008152600401610d7690612019565b60405180910390fd5b80600360006101000a81548173ffffffffffffffffffffffffffffffffffffffff021916908373ffffffffffffffffffffffffffffffffffffffff1602179055508073ffffffffffffffffffffffffffffffffffffffff167f91fb2ab6ae2c97b27c8675b15c080c2a5c59357a2795737c9590bdefa0539ffd60405160405180910390a250565b610e0e611379565b610e1860006114ff565b565b610e22611379565b600073ffffffffffffffffffffffffffffffffffffffff168173ffffffffffffffffffffffffffffffffffffffff1603610e91576040517f08c379a0000000000000000000000000000000000000000000000000000000008152600401610e88906120ab565b60405180910390fd5b80600560006101000a81548173ffffffffffffffffffffffffffffffffffffffff021916908373ffffffffffffffffffffffffffffffffffffffff1602179055508073ffffffffffffffffffffffffffffffffffffffff167f12ec28b03fe783c9fdd91fc146ca116cb22d4ce9e1354405d21cfd810f1f3e3c60405160405180910390a250565b60075481565b610f26611379565b610f2e6115c3565b565b610f38611379565b600260019054906101000a900473ffffffffffffffffffffffffffffffffffffffff1673ffffffffffffffffffffffffffffffffffffffff168273ffffffffffffffffffffffffffffffffffffffff1603610fc8576040517f08c379a0000000000000000000000000000000000000000000000000000000008152600401610fbf90612117565b60405180910390fd5b610ffa610fd3610ffe565b828473ffffffffffffffffffffffffffffffffffffffff166116269092919063ffffffff16565b5050565b60008060009054906101000a900473ffffffffffffffffffffffffffffffffffffffff16905090565b60066020528060005260406000206000915090508060000154908060010154905082565b600360009054906101000a900473ffffffffffffffffffffffffffffffffffffffff1681565b61107961132f565b6110816112e9565b600081116110c4576040517f08c379a00000000000000000000000000000000000000000000000000000000081526004016110bb90612183565b60405180910390fd5b6000600660003373ffffffffffffffffffffffffffffffffffffffff1673ffffffffffffffffffffffffffffffffffffffff168152602001908152602001600020600001540361117e57604051806040016040528082815260200142815250600660003373ffffffffffffffffffffffffffffffffffffffff1673ffffffffffffffffffffffffffffffffffffffff16815260200190815260200160002060008201518160000155602082015181600101559050506111d8565b80600660003373ffffffffffffffffffffffffffffffffffffffff1673ffffffffffffffffffffffffffffffffffffffff16815260200190815260200160002060000160008282546111d091906121a3565b925050819055505b80600760008282546111ea91906121a3565b92505081905550806008600082825461120391906121a3565b925050819055503373ffffffffffffffffffffffffffffffffffffffff167f2da466a7b24304f47e87fa2e1e5a81b9831ce54fec19055ce277ca2f39ba42c48260405161125091906119a7565b60405180910390a2611260611370565b50565b61126b611379565b600073ffffffffffffffffffffffffffffffffffffffff168173ffffffffffffffffffffffffffffffffffffffff16036112dd5760006040517f1e4fbdf70000000000000000000000000000000000000000000000000000000081526004016112d491906119d1565b60405180910390fd5b6112e6816114ff565b50565b600260015403611325576040517f3ee5aeb500000000000000000000000000000000000000000000000000000000815260040160405180910390fd5b6002600181905550565b611337610cf1565b1561136e576040517fd93c066500000000000000000000000000000000000000000000000000000000815260040160405180910390fd5b565b60018081905550565b6113816116a5565b73ffffffffffffffffffffffffffffffffffffffff1661139f610ffe565b73ffffffffffffffffffffffffffffffffffffffff16146113fe576113c26116a5565b6040517f118cdaa70000000000000000000000000000000000000000000000000000000081526004016113f591906119d1565b60405180910390fd5b565b6114086116ad565b6000600260006101000a81548160ff0219169083151502179055507f5db9ee0a495bf2e6ff9c91a7834c1ba4fdd244a5e8aa4e537bd38aeae4b073aa61144c6116a5565b60405161145991906119d1565b60405180910390a1565b60008373ffffffffffffffffffffffffffffffffffffffff1663dd62ed3e30856040518363ffffffff1660e01b81526004016114a09291906121d7565b602060405180830381865afa1580156114bd573d6000803e3d6000fd5b505050506040513d601f19601f820116820180604052508101906114e19190611b73565b90506114f9848484846114f491906121a3565b6116ed565b50505050565b60008060009054906101000a900473ffffffffffffffffffffffffffffffffffffffff169050816000806101000a81548173ffffffffffffffffffffffffffffffffffffffff021916908373ffffffffffffffffffffffffffffffffffffffff1602179055508173ffffffffffffffffffffffffffffffffffffffff168173ffffffffffffffffffffffffffffffffffffffff167f8be0079c531659141344cd1fd0a4f28419497f9722a3daafe3b4186f6b6457e060405160405180910390a35050565b6115cb61132f565b6001600260006101000a81548160ff0219169083151502179055507f62e78cea01bee320cd4e420270b5ea74000d11b0c9f74754ebdbfc544b05a25861160f6116a5565b60405161161c91906119d1565b60405180910390a1565b6116a0838473ffffffffffffffffffffffffffffffffffffffff1663a9059cbb8585604051602401611659929190612200565b604051602081830303815290604052915060e01b6020820180517bffffffffffffffffffffffffffffffffffffffffffffffffffffffff83818316178352505050506117fc565b505050565b600033905090565b6116b5610cf1565b6116eb576040517f8dfc202b00000000000000000000000000000000000000000000000000000000815260040160405180910390fd5b565b60008373ffffffffffffffffffffffffffffffffffffffff1663095ea7b3848460405160240161171e929190612200565b604051602081830303815290604052915060e01b6020820180517bffffffffffffffffffffffffffffffffffffffffffffffffffffffff8381831617835250505050905061176c848261189e565b6117f6576117eb848573ffffffffffffffffffffffffffffffffffffffff1663095ea7b38660006040516024016117a492919061225a565b604051602081830303815290604052915060e01b6020820180517bffffffffffffffffffffffffffffffffffffffffffffffffffffffff83818316178352505050506117fc565b6117f584826117fc565b5b50505050565b600080602060008451602086016000885af18061181f576040513d6000823e3d81fd5b3d92506000519150506000821461183a576001811415611856565b60008473ffffffffffffffffffffffffffffffffffffffff163b145b1561189857836040517f5274afe700000000000000000000000000000000000000000000000000000000815260040161188f91906119d1565b60405180910390fd5b50505050565b6000806000806020600086516020880160008a5af192503d915060005190508280156118f35750600082146118d657600181146118f2565b60008673ffffffffffffffffffffffffffffffffffffffff163b115b5b935050505092915050565b600080fd5b600073ffffffffffffffffffffffffffffffffffffffff82169050919050565b600061192e82611903565b9050919050565b61193e81611923565b811461194957600080fd5b50565b60008135905061195b81611935565b92915050565b600060208284031215611977576119766118fe565b5b60006119858482850161194c565b91505092915050565b6000819050919050565b6119a18161198e565b82525050565b60006020820190506119bc6000830184611998565b92915050565b6119cb81611923565b82525050565b60006020820190506119e660008301846119c2565b92915050565b6000819050919050565b6000611a11611a0c611a0784611903565b6119ec565b611903565b9050919050565b6000611a23826119f6565b9050919050565b6000611a3582611a18565b9050919050565b611a4581611a2a565b82525050565b6000602082019050611a606000830184611a3c565b92915050565b611a6f8161198e565b8114611a7a57600080fd5b50565b600081359050611a8c81611a66565b92915050565b600060208284031215611aa857611aa76118fe565b5b6000611ab684828501611a7d565b91505092915050565b60008115159050919050565b611ad481611abf565b82525050565b6000602082019050611aef6000830184611acb565b92915050565b60008060408385031215611b0c57611b0b6118fe565b5b6000611b1a8582860161194c565b9250506020611b2b85828601611a7d565b9150509250929050565b6000604082019050611b4a6000830185611998565b611b576020830184611998565b9392505050565b600081519050611b6d81611a66565b92915050565b600060208284031215611b8957611b886118fe565b5b6000611b9784828501611b5e565b91505092915050565b600082825260208201905092915050565b7f416d6f756e74206d7573742062652067726561746572207468616e207a65726f600082015250565b6000611be7602083611ba0565b9150611bf282611bb1565b602082019050919050565b60006020820190508181036000830152611c1681611bda565b9050919050565b7f4e6f7420656e6f7567682062616c616e63650000000000000000000000000000600082015250565b6000611c53601283611ba0565b9150611c5e82611c1d565b602082019050919050565b60006020820190508181036000830152611c8281611c46565b9050919050565b7f5374616b696e6720706f6f6c206e6f7420736574000000000000000000000000600082015250565b6000611cbf601483611ba0565b9150611cca82611c89565b602082019050919050565b60006020820190508181036000830152611cee81611cb2565b9050919050565b7f4e487b7100000000000000000000000000000000000000000000000000000000600052601160045260246000fd5b6000611d2f8261198e565b9150611d3a8361198e565b9250828203905081811115611d5257611d51611cf5565b5b92915050565b6000606082019050611d6d60008301866119c2565b611d7a6020830185611998565b611d8760408301846119c2565b949350505050565b7f496e76616c696420635553442061646472657373000000000000000000000000600082015250565b6000611dc5601483611ba0565b9150611dd082611d8f565b602082019050919050565b60006020820190508181036000830152611df481611db8565b9050919050565b7f496e76616c6964207374616b696e6720706f6f6c206164647265737300000000600082015250565b6000611e31601c83611ba0565b9150611e3c82611dfb565b602082019050919050565b60006020820190508181036000830152611e6081611e24565b9050919050565b7f4f6e6c79204149204167656e742063616e2063616c6c20746869730000000000600082015250565b6000611e9d601b83611ba0565b9150611ea882611e67565b602082019050919050565b60006020820190508181036000830152611ecc81611e90565b9050919050565b7f4e6f20756e7374616b65642066756e647320746f207374616b65000000000000600082015250565b6000611f09601a83611ba0565b9150611f1482611ed3565b602082019050919050565b60006020820190508181036000830152611f3881611efc565b9050919050565b6000819050919050565b600061ffff82169050919050565b6000611f72611f6d611f6884611f3f565b6119ec565b611f49565b9050919050565b611f8281611f57565b82525050565b6000608082019050611f9d60008301876119c2565b611faa6020830186611998565b611fb760408301856119c2565b611fc46060830184611f79565b95945050505050565b7f496e76616c6964204149206167656e7420616464726573730000000000000000600082015250565b6000612003601883611ba0565b915061200e82611fcd565b602082019050919050565b6000602082019050818103600083015261203281611ff6565b9050919050565b7f496e76616c6964204d6f6f6c61204d61726b65742070726f787920616464726560008201527f7373000000000000000000000000000000000000000000000000000000000000602082015250565b6000612095602283611ba0565b91506120a082612039565b604082019050919050565b600060208201905081810360008301526120c481612088565b9050919050565b7f43616e6e6f74207265636f766572206355534400000000000000000000000000600082015250565b6000612101601383611ba0565b915061210c826120cb565b602082019050919050565b60006020820190508181036000830152612130816120f4565b9050919050565b7f43616e6e6f74206465706f736974203000000000000000000000000000000000600082015250565b600061216d601083611ba0565b915061217882612137565b602082019050919050565b6000602082019050818103600083015261219c81612160565b9050919050565b60006121ae8261198e565b91506121b98361198e565b92508282019050808211156121d1576121d0611cf5565b5b92915050565b60006040820190506121ec60008301856119c2565b6121f960208301846119c2565b9392505050565b600060408201905061221560008301856119c2565b6122226020830184611998565b9392505050565b600061224461223f61223a84611f3f565b6119ec565b61198e565b9050919050565b61225481612229565b82525050565b600060408201905061226f60008301856119c2565b61227c602083018461224b565b939250505056fea2646970667358221220e401134021bafb2614f6ba58bc9b880b859802fe63fc2b4df2182b5eaff5bd3064736f6c63430008140033",
  "linkReferences": {},
  "deployedLinkReferences": {}
}