{
  "_format": "hh-sol-artifact-1",
  "contractName": "Intel",
  "sourceName": "contracts/Intel.sol",
  "abi": [
    {
      "inputs": [
        {
          "internalType": "address",
          "name": "_cUSD",
          "type": "address"
        },
        {
          "internalType": "address",
          "name": "_aiAgent",
          "type": "address"
        }
      ],
      "stateMutability": "nonpayable",
      "type": "constructor"
    },
    {
      "inputs": [
        {
          "internalType": "address",
          "name": "owner",
          "type": "address"
        }
      ],
      "name": "OwnableInvalidOwner",
      "type": "error"
    },
    {
      "inputs": [
        {
          "internalType": "address",
          "name": "account",
          "type": "address"
        }
      ],
      "name": "OwnableUnauthorizedAccount",
      "type": "error"
    },
    {
      "anonymous": false,
      "inputs": [
        {
          "indexed": true,
          "internalType": "address",
          "name": "user",
          "type": "address"
        },
        {
          "indexed": false,
          "internalType": "uint256",
          "name": "amount",
          "type": "uint256"
        }
      ],
      "name": "Deposited",
      "type": "event"
    },
    {
      "anonymous": false,
      "inputs": [
        {
          "indexed": true,
          "internalType": "address",
          "name": "previousOwner",
          "type": "address"
        },
        {
          "indexed": true,
          "internalType": "address",
          "name": "newOwner",
          "type": "address"
        }
      ],
      "name": "OwnershipTransferred",
      "type": "event"
    },
    {
      "anonymous": false,
      "inputs": [
        {
          "indexed": true,
          "internalType": "address",
          "name": "user",
          "type": "address"
        },
        {
          "indexed": false,
          "internalType": "uint256",
          "name": "amount",
          "type": "uint256"
        }
      ],
      "name": "RewardsClaimed",
      "type": "event"
    },
    {
      "anonymous": false,
      "inputs": [
        {
          "indexed": true,
          "internalType": "address",
          "name": "pool",
          "type": "address"
        },
        {
          "indexed": false,
          "internalType": "uint256",
          "name": "amount",
          "type": "uint256"
        }
      ],
      "name": "Staked",
      "type": "event"
    },
    {
      "anonymous": false,
      "inputs": [
        {
          "indexed": true,
          "internalType": "address",
          "name": "user",
          "type": "address"
        },
        {
          "indexed": false,
          "internalType": "uint256",
          "name": "amount",
          "type": "uint256"
        }
      ],
      "name": "Withdrawn",
      "type": "event"
    },
    {
      "inputs": [],
      "name": "aiAgent",
      "outputs": [
        {
          "internalType": "address",
          "name": "",
          "type": "address"
        }
      ],
      "stateMutability": "view",
      "type": "function"
    },
    {
      "inputs": [],
      "name": "cUSD",
      "outputs": [
        {
          "internalType": "contract IERC20",
          "name": "",
          "type": "address"
        }
      ],
      "stateMutability": "view",
      "type": "function"
    },
    {
      "inputs": [],
      "name": "claimRewards",
      "outputs": [],
      "stateMutability": "nonpayable",
      "type": "function"
    },
    {
      "inputs": [
        {
          "internalType": "uint256",
          "name": "amount",
          "type": "uint256"
        }
      ],
      "name": "deposit",
      "outputs": [],
      "stateMutability": "nonpayable",
      "type": "function"
    },
    {
      "inputs": [],
      "name": "owner",
      "outputs": [
        {
          "internalType": "address",
          "name": "",
          "type": "address"
        }
      ],
      "stateMutability": "view",
      "type": "function"
    },
    {
      "inputs": [],
      "name": "renounceOwnership",
      "outputs": [],
      "stateMutability": "nonpayable",
      "type": "function"
    },
    {
      "inputs": [
        {
          "internalType": "address",
          "name": "_stakingPool",
          "type": "address"
        }
      ],
      "name": "stakeInBestPool",
      "outputs": [],
      "stateMutability": "nonpayable",
      "type": "function"
    },
    {
      "inputs": [],
      "name": "stakingPool",
      "outputs": [
        {
          "internalType": "address",
          "name": "",
          "type": "address"
        }
      ],
      "stateMutability": "view",
      "type": "function"
    },
    {
      "inputs": [],
      "name": "totalStaked",
      "outputs": [
        {
          "internalType": "uint256",
          "name": "",
          "type": "uint256"
        }
      ],
      "stateMutability": "view",
      "type": "function"
    },
    {
      "inputs": [
        {
          "internalType": "address",
          "name": "newOwner",
          "type": "address"
        }
      ],
      "name": "transferOwnership",
      "outputs": [],
      "stateMutability": "nonpayable",
      "type": "function"
    },
    {
      "inputs": [
        {
          "internalType": "address",
          "name": "",
          "type": "address"
        }
      ],
      "name": "userStakes",
      "outputs": [
        {
          "internalType": "uint256",
          "name": "amount",
          "type": "uint256"
        },
        {
          "internalType": "uint256",
          "name": "rewards",
          "type": "uint256"
        }
      ],
      "stateMutability": "view",
      "type": "function"
    },
    {
      "inputs": [
        {
          "internalType": "uint256",
          "name": "amount",
          "type": "uint256"
        }
      ],
      "name": "withdraw",
      "outputs": [],
      "stateMutability": "nonpayable",
      "type": "function"
    }
  ],
  "bytecode": "0x60806040523480156200001157600080fd5b506040516200177238038062001772833981810160405281019062000037919062000277565b33600073ffffffffffffffffffffffffffffffffffffffff168173ffffffffffffffffffffffffffffffffffffffff1603620000ad5760006040517f1e4fbdf7000000000000000000000000000000000000000000000000000000008152600401620000a49190620002cf565b60405180910390fd5b620000be816200014960201b60201c565b5081600160006101000a81548173ffffffffffffffffffffffffffffffffffffffff021916908373ffffffffffffffffffffffffffffffffffffffff16021790555080600260006101000a81548173ffffffffffffffffffffffffffffffffffffffff021916908373ffffffffffffffffffffffffffffffffffffffff1602179055505050620002ec565b60008060009054906101000a900473ffffffffffffffffffffffffffffffffffffffff169050816000806101000a81548173ffffffffffffffffffffffffffffffffffffffff021916908373ffffffffffffffffffffffffffffffffffffffff1602179055508173ffffffffffffffffffffffffffffffffffffffff168173ffffffffffffffffffffffffffffffffffffffff167f8be0079c531659141344cd1fd0a4f28419497f9722a3daafe3b4186f6b6457e060405160405180910390a35050565b600080fd5b600073ffffffffffffffffffffffffffffffffffffffff82169050919050565b60006200023f8262000212565b9050919050565b620002518162000232565b81146200025d57600080fd5b50565b600081519050620002718162000246565b92915050565b600080604083850312156200029157620002906200020d565b5b6000620002a18582860162000260565b9250506020620002b48582860162000260565b9150509250929050565b620002c98162000232565b82525050565b6000602082019050620002e66000830184620002be565b92915050565b61147680620002fc6000396000f3fe608060405234801561001057600080fd5b50600436106100b45760003560e01c8063817b1cd211610071578063817b1cd2146101415780638da5cb5b1461015f5780638da7ad231461017d578063a6d5b732146101ae578063b6b55f25146101cc578063f2fde38b146101e8576100b4565b80630c56ae3b146100b95780631fccf672146100d75780632e1a7d4d146100f5578063372500ab146101115780634d1898a41461011b578063715018a614610137575b600080fd5b6100c1610204565b6040516100ce9190610e2a565b60405180910390f35b6100df61022a565b6040516100ec9190610ea4565b60405180910390f35b61010f600480360381019061010a9190610efa565b610250565b005b6101196104c6565b005b61013560048036038101906101309190610f53565b6106fb565b005b61013f6109da565b005b6101496109ee565b6040516101569190610f8f565b60405180910390f35b6101676109f4565b6040516101749190610e2a565b60405180910390f35b61019760048036038101906101929190610f53565b610a1d565b6040516101a5929190610faa565b60405180910390f35b6101b6610a41565b6040516101c39190610e2a565b60405180910390f35b6101e660048036038101906101e19190610efa565b610a67565b005b61020260048036038101906101fd9190610f53565b610c10565b005b600360009054906101000a900473ffffffffffffffffffffffffffffffffffffffff1681565b600160009054906101000a900473ffffffffffffffffffffffffffffffffffffffff1681565b80600460003373ffffffffffffffffffffffffffffffffffffffff1673ffffffffffffffffffffffffffffffffffffffff1681526020019081526020016000206000015410156102d5576040517f08c379a00000000000000000000000000000000000000000000000000000000081526004016102cc90611030565b60405180910390fd5b600360009054906101000a900473ffffffffffffffffffffffffffffffffffffffff1673ffffffffffffffffffffffffffffffffffffffff16632e1a7d4d826040518263ffffffff1660e01b81526004016103309190610f8f565b600060405180830381600087803b15801561034a57600080fd5b505af115801561035e573d6000803e3d6000fd5b50505050600160009054906101000a900473ffffffffffffffffffffffffffffffffffffffff1673ffffffffffffffffffffffffffffffffffffffff1663a9059cbb33836040518363ffffffff1660e01b81526004016103bf929190611050565b6020604051808303816000875af11580156103de573d6000803e3d6000fd5b505050506040513d601f19601f8201168201806040525081019061040291906110b1565b5080600460003373ffffffffffffffffffffffffffffffffffffffff1673ffffffffffffffffffffffffffffffffffffffff1681526020019081526020016000206000016000828254610455919061110d565b92505081905550806005600082825461046e919061110d565b925050819055503373ffffffffffffffffffffffffffffffffffffffff167f7084f5476618d8e60b11ef0d7d3f06914655adb8793e28ff7f018d4c76d505d5826040516104bb9190610f8f565b60405180910390a250565b6000600360009054906101000a900473ffffffffffffffffffffffffffffffffffffffff1673ffffffffffffffffffffffffffffffffffffffff166379ee54f7306040518263ffffffff1660e01b81526004016105239190610e2a565b602060405180830381865afa158015610540573d6000803e3d6000fd5b505050506040513d601f19601f820116820180604052508101906105649190611156565b90506000600554600460003373ffffffffffffffffffffffffffffffffffffffff1673ffffffffffffffffffffffffffffffffffffffff16815260200190815260200160002060000154836105b99190611183565b6105c391906111f4565b905060008111610608576040517f08c379a00000000000000000000000000000000000000000000000000000000081526004016105ff90611271565b60405180910390fd5b600160009054906101000a900473ffffffffffffffffffffffffffffffffffffffff1673ffffffffffffffffffffffffffffffffffffffff1663a9059cbb33836040518363ffffffff1660e01b8152600401610665929190611050565b6020604051808303816000875af1158015610684573d6000803e3d6000fd5b505050506040513d601f19601f820116820180604052508101906106a891906110b1565b503373ffffffffffffffffffffffffffffffffffffffff167ffc30cddea38e2bf4d6ea7d3f9ed3b6ad7f176419f4963bd81318067a4aee73fe826040516106ef9190610f8f565b60405180910390a25050565b600260009054906101000a900473ffffffffffffffffffffffffffffffffffffffff1673ffffffffffffffffffffffffffffffffffffffff163373ffffffffffffffffffffffffffffffffffffffff161461078b576040517f08c379a0000000000000000000000000000000000000000000000000000000008152600401610782906112dd565b60405180910390fd5b6000600554116107d0576040517f08c379a00000000000000000000000000000000000000000000000000000000081526004016107c790611349565b60405180910390fd5b80600360006101000a81548173ffffffffffffffffffffffffffffffffffffffff021916908373ffffffffffffffffffffffffffffffffffffffff160217905550600160009054906101000a900473ffffffffffffffffffffffffffffffffffffffff1673ffffffffffffffffffffffffffffffffffffffff1663095ea7b3600360009054906101000a900473ffffffffffffffffffffffffffffffffffffffff166005546040518363ffffffff1660e01b8152600401610892929190611050565b6020604051808303816000875af11580156108b1573d6000803e3d6000fd5b505050506040513d601f19601f820116820180604052508101906108d591906110b1565b50600360009054906101000a900473ffffffffffffffffffffffffffffffffffffffff1673ffffffffffffffffffffffffffffffffffffffff1663a694fc3a6005546040518263ffffffff1660e01b81526004016109339190610f8f565b600060405180830381600087803b15801561094d57600080fd5b505af1158015610961573d6000803e3d6000fd5b50505050600360009054906101000a900473ffffffffffffffffffffffffffffffffffffffff1673ffffffffffffffffffffffffffffffffffffffff167f9e71bc8eea02a63969f509818f2dafb9254532904319f9dbda79b67bd34a5f3d6005546040516109cf9190610f8f565b60405180910390a250565b6109e2610c96565b6109ec6000610d1d565b565b60055481565b60008060009054906101000a900473ffffffffffffffffffffffffffffffffffffffff16905090565b60046020528060005260406000206000915090508060000154908060010154905082565b600260009054906101000a900473ffffffffffffffffffffffffffffffffffffffff1681565b60008111610aaa576040517f08c379a0000000000000000000000000000000000000000000000000000000008152600401610aa1906113b5565b60405180910390fd5b600160009054906101000a900473ffffffffffffffffffffffffffffffffffffffff1673ffffffffffffffffffffffffffffffffffffffff166323b872dd3330846040518463ffffffff1660e01b8152600401610b09939291906113d5565b6020604051808303816000875af1158015610b28573d6000803e3d6000fd5b505050506040513d601f19601f82011682018060405250810190610b4c91906110b1565b5080600460003373ffffffffffffffffffffffffffffffffffffffff1673ffffffffffffffffffffffffffffffffffffffff1681526020019081526020016000206000016000828254610b9f919061140c565b925050819055508060056000828254610bb8919061140c565b925050819055503373ffffffffffffffffffffffffffffffffffffffff167f2da466a7b24304f47e87fa2e1e5a81b9831ce54fec19055ce277ca2f39ba42c482604051610c059190610f8f565b60405180910390a250565b610c18610c96565b600073ffffffffffffffffffffffffffffffffffffffff168173ffffffffffffffffffffffffffffffffffffffff1603610c8a5760006040517f1e4fbdf7000000000000000000000000000000000000000000000000000000008152600401610c819190610e2a565b60405180910390fd5b610c9381610d1d565b50565b610c9e610de1565b73ffffffffffffffffffffffffffffffffffffffff16610cbc6109f4565b73ffffffffffffffffffffffffffffffffffffffff1614610d1b57610cdf610de1565b6040517f118cdaa7000000000000000000000000000000000000000000000000000000008152600401610d129190610e2a565b60405180910390fd5b565b60008060009054906101000a900473ffffffffffffffffffffffffffffffffffffffff169050816000806101000a81548173ffffffffffffffffffffffffffffffffffffffff021916908373ffffffffffffffffffffffffffffffffffffffff1602179055508173ffffffffffffffffffffffffffffffffffffffff168173ffffffffffffffffffffffffffffffffffffffff167f8be0079c531659141344cd1fd0a4f28419497f9722a3daafe3b4186f6b6457e060405160405180910390a35050565b600033905090565b600073ffffffffffffffffffffffffffffffffffffffff82169050919050565b6000610e1482610de9565b9050919050565b610e2481610e09565b82525050565b6000602082019050610e3f6000830184610e1b565b92915050565b6000819050919050565b6000610e6a610e65610e6084610de9565b610e45565b610de9565b9050919050565b6000610e7c82610e4f565b9050919050565b6000610e8e82610e71565b9050919050565b610e9e81610e83565b82525050565b6000602082019050610eb96000830184610e95565b92915050565b600080fd5b6000819050919050565b610ed781610ec4565b8114610ee257600080fd5b50565b600081359050610ef481610ece565b92915050565b600060208284031215610f1057610f0f610ebf565b5b6000610f1e84828501610ee5565b91505092915050565b610f3081610e09565b8114610f3b57600080fd5b50565b600081359050610f4d81610f27565b92915050565b600060208284031215610f6957610f68610ebf565b5b6000610f7784828501610f3e565b91505092915050565b610f8981610ec4565b82525050565b6000602082019050610fa46000830184610f80565b92915050565b6000604082019050610fbf6000830185610f80565b610fcc6020830184610f80565b9392505050565b600082825260208201905092915050565b7f4e6f7420656e6f7567682062616c616e63650000000000000000000000000000600082015250565b600061101a601283610fd3565b915061102582610fe4565b602082019050919050565b600060208201905081810360008301526110498161100d565b9050919050565b60006040820190506110656000830185610e1b565b6110726020830184610f80565b9392505050565b60008115159050919050565b61108e81611079565b811461109957600080fd5b50565b6000815190506110ab81611085565b92915050565b6000602082840312156110c7576110c6610ebf565b5b60006110d58482850161109c565b91505092915050565b7f4e487b7100000000000000000000000000000000000000000000000000000000600052601160045260246000fd5b600061111882610ec4565b915061112383610ec4565b925082820390508181111561113b5761113a6110de565b5b92915050565b60008151905061115081610ece565b92915050565b60006020828403121561116c5761116b610ebf565b5b600061117a84828501611141565b91505092915050565b600061118e82610ec4565b915061119983610ec4565b92508282026111a781610ec4565b915082820484148315176111be576111bd6110de565b5b5092915050565b7f4e487b7100000000000000000000000000000000000000000000000000000000600052601260045260246000fd5b60006111ff82610ec4565b915061120a83610ec4565b92508261121a576112196111c5565b5b828204905092915050565b7f4e6f207265776172647320617661696c61626c65000000000000000000000000600082015250565b600061125b601483610fd3565b915061126682611225565b602082019050919050565b6000602082019050818103600083015261128a8161124e565b9050919050565b7f4f6e6c79204149204167656e742063616e2063616c6c20746869730000000000600082015250565b60006112c7601b83610fd3565b91506112d282611291565b602082019050919050565b600060208201905081810360008301526112f6816112ba565b9050919050565b7f4e6f2066756e647320746f207374616b65000000000000000000000000000000600082015250565b6000611333601183610fd3565b915061133e826112fd565b602082019050919050565b6000602082019050818103600083015261136281611326565b9050919050565b7f43616e6e6f74206465706f736974203000000000000000000000000000000000600082015250565b600061139f601083610fd3565b91506113aa82611369565b602082019050919050565b600060208201905081810360008301526113ce81611392565b9050919050565b60006060820190506113ea6000830186610e1b565b6113f76020830185610e1b565b6114046040830184610f80565b949350505050565b600061141782610ec4565b915061142283610ec4565b925082820190508082111561143a576114396110de565b5b9291505056fea2646970667358221220c0d174d72f6f95f3c09c3fc1fb43b16575f1031d596e7d5a64c8aad6b1b995c864736f6c63430008140033",
  "linkReferences": {},
  "deployedLinkReferences": {}
}