{
  "_format": "hh-sol-artifact-1",
  "contractName": "Intel",
  "sourceName": "contracts/Intel.sol",
  "abi": [
    {
      "inputs": [
        {
          "internalType": "address",
          "name": "_cUSD",
          "type": "address"
        },
        {
          "internalType": "address",
          "name": "_aiAgent",
          "type": "address"
        },
        {
          "internalType": "address",
          "name": "_moolaMarketProxy",
          "type": "address"
        }
      ],
      "stateMutability": "nonpayable",
      "type": "constructor"
    },
    {
      "inputs": [],
      "name": "EnforcedPause",
      "type": "error"
    },
    {
      "inputs": [],
      "name": "ExpectedPause",
      "type": "error"
    },
    {
      "inputs": [
        {
          "internalType": "address",
          "name": "owner",
          "type": "address"
        }
      ],
      "name": "OwnableInvalidOwner",
      "type": "error"
    },
    {
      "inputs": [
        {
          "internalType": "address",
          "name": "account",
          "type": "address"
        }
      ],
      "name": "OwnableUnauthorizedAccount",
      "type": "error"
    },
    {
      "inputs": [],
      "name": "ReentrancyGuardReentrantCall",
      "type": "error"
    },
    {
      "inputs": [
        {
          "internalType": "address",
          "name": "token",
          "type": "address"
        }
      ],
      "name": "SafeERC20FailedOperation",
      "type": "error"
    },
    {
      "anonymous": false,
      "inputs": [
        {
          "indexed": true,
          "internalType": "address",
          "name": "newAIAgent",
          "type": "address"
        }
      ],
      "name": "AIAgentUpdated",
      "type": "event"
    },
    {
      "anonymous": false,
      "inputs": [
        {
          "indexed": true,
          "internalType": "address",
          "name": "newCUSD",
          "type": "address"
        }
      ],
      "name": "CUSDUpdated",
      "type": "event"
    },
    {
      "anonymous": false,
      "inputs": [
        {
          "indexed": true,
          "internalType": "address",
          "name": "user",
          "type": "address"
        },
        {
          "indexed": false,
          "internalType": "uint256",
          "name": "amount",
          "type": "uint256"
        }
      ],
      "name": "Deposited",
      "type": "event"
    },
    {
      "anonymous": false,
      "inputs": [
        {
          "indexed": true,
          "internalType": "address",
          "name": "newMoolaMarketProxy",
          "type": "address"
        }
      ],
      "name": "MoolaMarketProxyUpdated",
      "type": "event"
    },
    {
      "anonymous": false,
      "inputs": [
        {
          "indexed": true,
          "internalType": "address",
          "name": "previousOwner",
          "type": "address"
        },
        {
          "indexed": true,
          "internalType": "address",
          "name": "newOwner",
          "type": "address"
        }
      ],
      "name": "OwnershipTransferred",
      "type": "event"
    },
    {
      "anonymous": false,
      "inputs": [
        {
          "indexed": false,
          "internalType": "address",
          "name": "account",
          "type": "address"
        }
      ],
      "name": "Paused",
      "type": "event"
    },
    {
      "anonymous": false,
      "inputs": [
        {
          "indexed": true,
          "internalType": "address",
          "name": "pool",
          "type": "address"
        },
        {
          "indexed": false,
          "internalType": "uint256",
          "name": "amount",
          "type": "uint256"
        }
      ],
      "name": "Staked",
      "type": "event"
    },
    {
      "anonymous": false,
      "inputs": [
        {
          "indexed": true,
          "internalType": "address",
          "name": "newStakingPool",
          "type": "address"
        }
      ],
      "name": "StakingPoolUpdated",
      "type": "event"
    },
    {
      "anonymous": false,
      "inputs": [
        {
          "indexed": false,
          "internalType": "address",
          "name": "account",
          "type": "address"
        }
      ],
      "name": "Unpaused",
      "type": "event"
    },
    {
      "anonymous": false,
      "inputs": [
        {
          "indexed": true,
          "internalType": "address",
          "name": "user",
          "type": "address"
        },
        {
          "indexed": false,
          "internalType": "uint256",
          "name": "amount",
          "type": "uint256"
        }
      ],
      "name": "Withdrawn",
      "type": "event"
    },
    {
      "inputs": [],
      "name": "aiAgent",
      "outputs": [
        {
          "internalType": "address",
          "name": "",
          "type": "address"
        }
      ],
      "stateMutability": "view",
      "type": "function"
    },
    {
      "inputs": [],
      "name": "cUSD",
      "outputs": [
        {
          "internalType": "contract IERC20",
          "name": "",
          "type": "address"
        }
      ],
      "stateMutability": "view",
      "type": "function"
    },
    {
      "inputs": [],
      "name": "contractUnstakedBalance",
      "outputs": [
        {
          "internalType": "uint256",
          "name": "",
          "type": "uint256"
        }
      ],
      "stateMutability": "view",
      "type": "function"
    },
    {
      "inputs": [
        {
          "internalType": "uint256",
          "name": "amount",
          "type": "uint256"
        }
      ],
      "name": "deposit",
      "outputs": [],
      "stateMutability": "nonpayable",
      "type": "function"
    },
    {
      "inputs": [
        {
          "internalType": "address",
          "name": "user",
          "type": "address"
        }
      ],
      "name": "getUserRewards",
      "outputs": [
        {
          "internalType": "uint256",
          "name": "",
          "type": "uint256"
        }
      ],
      "stateMutability": "view",
      "type": "function"
    },
    {
      "inputs": [
        {
          "internalType": "address",
          "name": "user",
          "type": "address"
        }
      ],
      "name": "getUserStake",
      "outputs": [
        {
          "internalType": "uint256",
          "name": "amount",
          "type": "uint256"
        }
      ],
      "stateMutability": "view",
      "type": "function"
    },
    {
      "inputs": [],
      "name": "moolaMarketProxy",
      "outputs": [
        {
          "internalType": "address",
          "name": "",
          "type": "address"
        }
      ],
      "stateMutability": "view",
      "type": "function"
    },
    {
      "inputs": [],
      "name": "owner",
      "outputs": [
        {
          "internalType": "address",
          "name": "",
          "type": "address"
        }
      ],
      "stateMutability": "view",
      "type": "function"
    },
    {
      "inputs": [],
      "name": "pause",
      "outputs": [],
      "stateMutability": "nonpayable",
      "type": "function"
    },
    {
      "inputs": [],
      "name": "paused",
      "outputs": [
        {
          "internalType": "bool",
          "name": "",
          "type": "bool"
        }
      ],
      "stateMutability": "view",
      "type": "function"
    },
    {
      "inputs": [
        {
          "internalType": "address",
          "name": "tokenAddress",
          "type": "address"
        },
        {
          "internalType": "uint256",
          "name": "amount",
          "type": "uint256"
        }
      ],
      "name": "recoverERC20",
      "outputs": [],
      "stateMutability": "nonpayable",
      "type": "function"
    },
    {
      "inputs": [],
      "name": "renounceOwnership",
      "outputs": [],
      "stateMutability": "nonpayable",
      "type": "function"
    },
    {
      "inputs": [
        {
          "internalType": "address",
          "name": "_aiAgent",
          "type": "address"
        }
      ],
      "name": "setAIAgent",
      "outputs": [],
      "stateMutability": "nonpayable",
      "type": "function"
    },
    {
      "inputs": [
        {
          "internalType": "address",
          "name": "_cUSD",
          "type": "address"
        }
      ],
      "name": "setCUSD",
      "outputs": [],
      "stateMutability": "nonpayable",
      "type": "function"
    },
    {
      "inputs": [
        {
          "internalType": "address",
          "name": "_moolaMarketProxy",
          "type": "address"
        }
      ],
      "name": "setMoolaMarketProxy",
      "outputs": [],
      "stateMutability": "nonpayable",
      "type": "function"
    },
    {
      "inputs": [
        {
          "internalType": "address",
          "name": "_stakingPool",
          "type": "address"
        }
      ],
      "name": "setStakingPool",
      "outputs": [],
      "stateMutability": "nonpayable",
      "type": "function"
    },
    {
      "inputs": [
        {
          "internalType": "address",
          "name": "_stakingPool",
          "type": "address"
        }
      ],
      "name": "stakeInBestPool",
      "outputs": [],
      "stateMutability": "nonpayable",
      "type": "function"
    },
    {
      "inputs": [],
      "name": "stakingPool",
      "outputs": [
        {
          "internalType": "address",
          "name": "",
          "type": "address"
        }
      ],
      "stateMutability": "view",
      "type": "function"
    },
    {
      "inputs": [],
      "name": "totalStaked",
      "outputs": [
        {
          "internalType": "uint256",
          "name": "",
          "type": "uint256"
        }
      ],
      "stateMutability": "view",
      "type": "function"
    },
    {
      "inputs": [
        {
          "internalType": "address",
          "name": "newOwner",
          "type": "address"
        }
      ],
      "name": "transferOwnership",
      "outputs": [],
      "stateMutability": "nonpayable",
      "type": "function"
    },
    {
      "inputs": [],
      "name": "unpause",
      "outputs": [],
      "stateMutability": "nonpayable",
      "type": "function"
    },
    {
      "inputs": [
        {
          "internalType": "address",
          "name": "",
          "type": "address"
        }
      ],
      "name": "userStakes",
      "outputs": [
        {
          "internalType": "uint256",
          "name": "amount",
          "type": "uint256"
        },
        {
          "internalType": "uint256",
          "name": "timestamp",
          "type": "uint256"
        }
      ],
      "stateMutability": "view",
      "type": "function"
    },
    {
      "inputs": [
        {
          "internalType": "uint256",
          "name": "amount",
          "type": "uint256"
        }
      ],
      "name": "withdraw",
      "outputs": [],
      "stateMutability": "nonpayable",
      "type": "function"
    }
  ],
  "bytecode": "0x60806040523480156200001157600080fd5b506040516200299838038062002998833981810160405281019062000037919062000431565b33600073ffffffffffffffffffffffffffffffffffffffff168173ffffffffffffffffffffffffffffffffffffffff1603620000ad5760006040517f1e4fbdf7000000000000000000000000000000000000000000000000000000008152600401620000a491906200049e565b60405180910390fd5b620000be816200030360201b60201c565b50600180819055506000600260006101000a81548160ff021916908315150217905550600073ffffffffffffffffffffffffffffffffffffffff168373ffffffffffffffffffffffffffffffffffffffff160362000153576040517f08c379a00000000000000000000000000000000000000000000000000000000081526004016200014a906200051c565b60405180910390fd5b600073ffffffffffffffffffffffffffffffffffffffff168273ffffffffffffffffffffffffffffffffffffffff1603620001c5576040517f08c379a0000000000000000000000000000000000000000000000000000000008152600401620001bc906200058e565b60405180910390fd5b600073ffffffffffffffffffffffffffffffffffffffff168173ffffffffffffffffffffffffffffffffffffffff160362000237576040517f08c379a00000000000000000000000000000000000000000000000000000000081526004016200022e9062000626565b60405180910390fd5b82600260016101000a81548173ffffffffffffffffffffffffffffffffffffffff021916908373ffffffffffffffffffffffffffffffffffffffff16021790555081600360006101000a81548173ffffffffffffffffffffffffffffffffffffffff021916908373ffffffffffffffffffffffffffffffffffffffff16021790555080600560006101000a81548173ffffffffffffffffffffffffffffffffffffffff021916908373ffffffffffffffffffffffffffffffffffffffff16021790555050505062000648565b60008060009054906101000a900473ffffffffffffffffffffffffffffffffffffffff169050816000806101000a81548173ffffffffffffffffffffffffffffffffffffffff021916908373ffffffffffffffffffffffffffffffffffffffff1602179055508173ffffffffffffffffffffffffffffffffffffffff168173ffffffffffffffffffffffffffffffffffffffff167f8be0079c531659141344cd1fd0a4f28419497f9722a3daafe3b4186f6b6457e060405160405180910390a35050565b600080fd5b600073ffffffffffffffffffffffffffffffffffffffff82169050919050565b6000620003f982620003cc565b9050919050565b6200040b81620003ec565b81146200041757600080fd5b50565b6000815190506200042b8162000400565b92915050565b6000806000606084860312156200044d576200044c620003c7565b5b60006200045d868287016200041a565b935050602062000470868287016200041a565b925050604062000483868287016200041a565b9150509250925092565b6200049881620003ec565b82525050565b6000602082019050620004b560008301846200048d565b92915050565b600082825260208201905092915050565b7f496e76616c696420635553442061646472657373000000000000000000000000600082015250565b600062000504601483620004bb565b91506200051182620004cc565b602082019050919050565b600060208201905081810360008301526200053781620004f5565b9050919050565b7f496e76616c6964204149206167656e7420616464726573730000000000000000600082015250565b600062000576601883620004bb565b915062000583826200053e565b602082019050919050565b60006020820190508181036000830152620005a98162000567565b9050919050565b7f496e76616c6964204d6f6f6c61204d61726b65742070726f787920616464726560008201527f7373000000000000000000000000000000000000000000000000000000000000602082015250565b60006200060e602283620004bb565b91506200061b82620005b0565b604082019050919050565b600060208201905081810360008301526200064181620005ff565b9050919050565b61234080620006586000396000f3fe608060405234801561001057600080fd5b506004361061014d5760003560e01c80636ebe941b116100c35780638da5cb5b1161007c5780638da5cb5b146103185780638da7ad2314610336578063a6d5b73214610367578063b6b55f2514610385578063bbadc93a146103a1578063f2fde38b146103d15761014d565b80636ebe941b14610292578063715018a6146102ae57806379d84339146102b8578063817b1cd2146102d45780638456cb59146102f25780638980f11f146102fc5761014d565b80632efa4bf8116101155780632efa4bf8146101f85780633028f63a1461021457806339beab02146102305780633f4ba83a1461024e5780634d1898a4146102585780635c975abb146102745761014d565b8063078b0fb7146101525780630c56ae3b146101825780631ad9e459146101a05780631fccf672146101be5780632e1a7d4d146101dc575b600080fd5b61016c600480360381019061016791906119e8565b6103ed565b6040516101799190611a2e565b60405180910390f35b61018a610492565b6040516101979190611a58565b60405180910390f35b6101a86104b8565b6040516101b59190611a58565b60405180910390f35b6101c66104de565b6040516101d39190611ad2565b60405180910390f35b6101f660048036038101906101f19190611b19565b610504565b005b610212600480360381019061020d91906119e8565b6107eb565b005b61022e600480360381019061022991906119e8565b6108e9565b005b6102386109e7565b6040516102459190611a2e565b60405180910390f35b6102566109ed565b005b610272600480360381019061026d91906119e8565b6109ff565b005b61027c610d2c565b6040516102899190611b61565b60405180910390f35b6102ac60048036038101906102a791906119e8565b610d43565b005b6102b6610e41565b005b6102d260048036038101906102cd91906119e8565b610e55565b005b6102dc610f53565b6040516102e99190611a2e565b60405180910390f35b6102fa610f59565b005b61031660048036038101906103119190611b7c565b610f6b565b005b610320611039565b60405161032d9190611a58565b60405180910390f35b610350600480360381019061034b91906119e8565b611062565b60405161035e929190611bbc565b60405180910390f35b61036f611086565b60405161037c9190611a58565b60405180910390f35b61039f600480360381019061039a9190611b19565b6110ac565b005b6103bb60048036038101906103b691906119e8565b61129e565b6040516103c89190611a2e565b60405180910390f35b6103eb60048036038101906103e691906119e8565b6112ea565b005b6000600460009054906101000a900473ffffffffffffffffffffffffffffffffffffffff1673ffffffffffffffffffffffffffffffffffffffff166379ee54f7836040518263ffffffff1660e01b815260040161044a9190611a58565b602060405180830381865afa158015610467573d6000803e3d6000fd5b505050506040513d601f19601f8201168201806040525081019061048b9190611bfa565b9050919050565b600460009054906101000a900473ffffffffffffffffffffffffffffffffffffffff1681565b600560009054906101000a900473ffffffffffffffffffffffffffffffffffffffff1681565b600260019054906101000a900473ffffffffffffffffffffffffffffffffffffffff1681565b61050c611370565b6105146113b6565b60008111610557576040517f08c379a000000000000000000000000000000000000000000000000000000000815260040161054e90611c84565b60405180910390fd5b80600660003373ffffffffffffffffffffffffffffffffffffffff1673ffffffffffffffffffffffffffffffffffffffff1681526020019081526020016000206000015410156105dc576040517f08c379a00000000000000000000000000000000000000000000000000000000081526004016105d390611cf0565b60405180910390fd5b600073ffffffffffffffffffffffffffffffffffffffff16600460009054906101000a900473ffffffffffffffffffffffffffffffffffffffff1673ffffffffffffffffffffffffffffffffffffffff160361066d576040517f08c379a000000000000000000000000000000000000000000000000000000000815260040161066490611d5c565b60405180910390fd5b80600660003373ffffffffffffffffffffffffffffffffffffffff1673ffffffffffffffffffffffffffffffffffffffff16815260200190815260200160002060000160008282546106bf9190611dab565b9250508190555080600760008282546106d89190611dab565b92505081905550600560009054906101000a900473ffffffffffffffffffffffffffffffffffffffff1673ffffffffffffffffffffffffffffffffffffffff166369328dec600260019054906101000a900473ffffffffffffffffffffffffffffffffffffffff1683336040518463ffffffff1660e01b815260040161076093929190611ddf565b600060405180830381600087803b15801561077a57600080fd5b505af115801561078e573d6000803e3d6000fd5b505050503373ffffffffffffffffffffffffffffffffffffffff167f7084f5476618d8e60b11ef0d7d3f06914655adb8793e28ff7f018d4c76d505d5826040516107d89190611a2e565b60405180910390a26107e86113f7565b50565b6107f3611400565b600073ffffffffffffffffffffffffffffffffffffffff168173ffffffffffffffffffffffffffffffffffffffff1603610862576040517f08c379a000000000000000000000000000000000000000000000000000000000815260040161085990611e62565b60405180910390fd5b80600260016101000a81548173ffffffffffffffffffffffffffffffffffffffff021916908373ffffffffffffffffffffffffffffffffffffffff1602179055508073ffffffffffffffffffffffffffffffffffffffff167f3fbcf2249f07d9ae2831d05e4d6ca2dfa2f737fbeaee1071adb7228c7ca9783460405160405180910390a250565b6108f1611400565b600073ffffffffffffffffffffffffffffffffffffffff168173ffffffffffffffffffffffffffffffffffffffff1603610960576040517f08c379a000000000000000000000000000000000000000000000000000000000815260040161095790611ece565b60405180910390fd5b80600460006101000a81548173ffffffffffffffffffffffffffffffffffffffff021916908373ffffffffffffffffffffffffffffffffffffffff1602179055508073ffffffffffffffffffffffffffffffffffffffff167f1984fdec4ffcca0907c88ef56716efae09a57013355072d097e081708438542460405160405180910390a250565b60085481565b6109f5611400565b6109fd611487565b565b600360009054906101000a900473ffffffffffffffffffffffffffffffffffffffff1673ffffffffffffffffffffffffffffffffffffffff163373ffffffffffffffffffffffffffffffffffffffff1614610a8f576040517f08c379a0000000000000000000000000000000000000000000000000000000008152600401610a8690611f3a565b60405180910390fd5b600073ffffffffffffffffffffffffffffffffffffffff168173ffffffffffffffffffffffffffffffffffffffff1603610afe576040517f08c379a0000000000000000000000000000000000000000000000000000000008152600401610af590611ece565b60405180910390fd5b600060085411610b43576040517f08c379a0000000000000000000000000000000000000000000000000000000008152600401610b3a90611fa6565b60405180910390fd5b80600460006101000a81548173ffffffffffffffffffffffffffffffffffffffff021916908373ffffffffffffffffffffffffffffffffffffffff16021790555060006008549050610bfa600460009054906101000a900473ffffffffffffffffffffffffffffffffffffffff1682600260019054906101000a900473ffffffffffffffffffffffffffffffffffffffff1673ffffffffffffffffffffffffffffffffffffffff166114ea9092919063ffffffff16565b600560009054906101000a900473ffffffffffffffffffffffffffffffffffffffff1673ffffffffffffffffffffffffffffffffffffffff1663e8eda9df600260019054906101000a900473ffffffffffffffffffffffffffffffffffffffff16833060006040518563ffffffff1660e01b8152600401610c7e949392919061200f565b600060405180830381600087803b158015610c9857600080fd5b505af1158015610cac573d6000803e3d6000fd5b505050506000600881905550600460009054906101000a900473ffffffffffffffffffffffffffffffffffffffff1673ffffffffffffffffffffffffffffffffffffffff167f9e71bc8eea02a63969f509818f2dafb9254532904319f9dbda79b67bd34a5f3d82604051610d209190611a2e565b60405180910390a25050565b6000600260009054906101000a900460ff16905090565b610d4b611400565b600073ffffffffffffffffffffffffffffffffffffffff168173ffffffffffffffffffffffffffffffffffffffff1603610dba576040517f08c379a0000000000000000000000000000000000000000000000000000000008152600401610db1906120a0565b60405180910390fd5b80600360006101000a81548173ffffffffffffffffffffffffffffffffffffffff021916908373ffffffffffffffffffffffffffffffffffffffff1602179055508073ffffffffffffffffffffffffffffffffffffffff167f91fb2ab6ae2c97b27c8675b15c080c2a5c59357a2795737c9590bdefa0539ffd60405160405180910390a250565b610e49611400565b610e536000611586565b565b610e5d611400565b600073ffffffffffffffffffffffffffffffffffffffff168173ffffffffffffffffffffffffffffffffffffffff1603610ecc576040517f08c379a0000000000000000000000000000000000000000000000000000000008152600401610ec390612132565b60405180910390fd5b80600560006101000a81548173ffffffffffffffffffffffffffffffffffffffff021916908373ffffffffffffffffffffffffffffffffffffffff1602179055508073ffffffffffffffffffffffffffffffffffffffff167f12ec28b03fe783c9fdd91fc146ca116cb22d4ce9e1354405d21cfd810f1f3e3c60405160405180910390a250565b60075481565b610f61611400565b610f6961164a565b565b610f73611400565b600260019054906101000a900473ffffffffffffffffffffffffffffffffffffffff1673ffffffffffffffffffffffffffffffffffffffff168273ffffffffffffffffffffffffffffffffffffffff1603611003576040517f08c379a0000000000000000000000000000000000000000000000000000000008152600401610ffa9061219e565b60405180910390fd5b61103561100e611039565b828473ffffffffffffffffffffffffffffffffffffffff166116ad9092919063ffffffff16565b5050565b60008060009054906101000a900473ffffffffffffffffffffffffffffffffffffffff16905090565b60066020528060005260406000206000915090508060000154908060010154905082565b600360009054906101000a900473ffffffffffffffffffffffffffffffffffffffff1681565b6110b46113b6565b6110bc611370565b600081116110ff576040517f08c379a00000000000000000000000000000000000000000000000000000000081526004016110f69061220a565b60405180910390fd5b6000600660003373ffffffffffffffffffffffffffffffffffffffff1673ffffffffffffffffffffffffffffffffffffffff16815260200190815260200160002060000154036111b957604051806040016040528082815260200142815250600660003373ffffffffffffffffffffffffffffffffffffffff1673ffffffffffffffffffffffffffffffffffffffff1681526020019081526020016000206000820151816000015560208201518160010155905050611213565b80600660003373ffffffffffffffffffffffffffffffffffffffff1673ffffffffffffffffffffffffffffffffffffffff168152602001908152602001600020600001600082825461120b919061222a565b925050819055505b8060076000828254611225919061222a565b92505081905550806008600082825461123e919061222a565b925050819055503373ffffffffffffffffffffffffffffffffffffffff167f2da466a7b24304f47e87fa2e1e5a81b9831ce54fec19055ce277ca2f39ba42c48260405161128b9190611a2e565b60405180910390a261129b6113f7565b50565b6000600660008373ffffffffffffffffffffffffffffffffffffffff1673ffffffffffffffffffffffffffffffffffffffff168152602001908152602001600020600001549050919050565b6112f2611400565b600073ffffffffffffffffffffffffffffffffffffffff168173ffffffffffffffffffffffffffffffffffffffff16036113645760006040517f1e4fbdf700000000000000000000000000000000000000000000000000000000815260040161135b9190611a58565b60405180910390fd5b61136d81611586565b50565b6002600154036113ac576040517f3ee5aeb500000000000000000000000000000000000000000000000000000000815260040160405180910390fd5b6002600181905550565b6113be610d2c565b156113f5576040517fd93c066500000000000000000000000000000000000000000000000000000000815260040160405180910390fd5b565b60018081905550565b61140861172c565b73ffffffffffffffffffffffffffffffffffffffff16611426611039565b73ffffffffffffffffffffffffffffffffffffffff16146114855761144961172c565b6040517f118cdaa700000000000000000000000000000000000000000000000000000000815260040161147c9190611a58565b60405180910390fd5b565b61148f611734565b6000600260006101000a81548160ff0219169083151502179055507f5db9ee0a495bf2e6ff9c91a7834c1ba4fdd244a5e8aa4e537bd38aeae4b073aa6114d361172c565b6040516114e09190611a58565b60405180910390a1565b60008373ffffffffffffffffffffffffffffffffffffffff1663dd62ed3e30856040518363ffffffff1660e01b815260040161152792919061225e565b602060405180830381865afa158015611544573d6000803e3d6000fd5b505050506040513d601f19601f820116820180604052508101906115689190611bfa565b90506115808484848461157b919061222a565b611774565b50505050565b60008060009054906101000a900473ffffffffffffffffffffffffffffffffffffffff169050816000806101000a81548173ffffffffffffffffffffffffffffffffffffffff021916908373ffffffffffffffffffffffffffffffffffffffff1602179055508173ffffffffffffffffffffffffffffffffffffffff168173ffffffffffffffffffffffffffffffffffffffff167f8be0079c531659141344cd1fd0a4f28419497f9722a3daafe3b4186f6b6457e060405160405180910390a35050565b6116526113b6565b6001600260006101000a81548160ff0219169083151502179055507f62e78cea01bee320cd4e420270b5ea74000d11b0c9f74754ebdbfc544b05a25861169661172c565b6040516116a39190611a58565b60405180910390a1565b611727838473ffffffffffffffffffffffffffffffffffffffff1663a9059cbb85856040516024016116e0929190612287565b604051602081830303815290604052915060e01b6020820180517bffffffffffffffffffffffffffffffffffffffffffffffffffffffff8381831617835250505050611883565b505050565b600033905090565b61173c610d2c565b611772576040517f8dfc202b00000000000000000000000000000000000000000000000000000000815260040160405180910390fd5b565b60008373ffffffffffffffffffffffffffffffffffffffff1663095ea7b384846040516024016117a5929190612287565b604051602081830303815290604052915060e01b6020820180517bffffffffffffffffffffffffffffffffffffffffffffffffffffffff838183161783525050505090506117f38482611925565b61187d57611872848573ffffffffffffffffffffffffffffffffffffffff1663095ea7b386600060405160240161182b9291906122e1565b604051602081830303815290604052915060e01b6020820180517bffffffffffffffffffffffffffffffffffffffffffffffffffffffff8381831617835250505050611883565b61187c8482611883565b5b50505050565b600080602060008451602086016000885af1806118a6576040513d6000823e3d81fd5b3d9250600051915050600082146118c15760018114156118dd565b60008473ffffffffffffffffffffffffffffffffffffffff163b145b1561191f57836040517f5274afe70000000000000000000000000000000000000000000000000000000081526004016119169190611a58565b60405180910390fd5b50505050565b6000806000806020600086516020880160008a5af192503d9150600051905082801561197a57506000821461195d5760018114611979565b60008673ffffffffffffffffffffffffffffffffffffffff163b115b5b935050505092915050565b600080fd5b600073ffffffffffffffffffffffffffffffffffffffff82169050919050565b60006119b58261198a565b9050919050565b6119c5816119aa565b81146119d057600080fd5b50565b6000813590506119e2816119bc565b92915050565b6000602082840312156119fe576119fd611985565b5b6000611a0c848285016119d3565b91505092915050565b6000819050919050565b611a2881611a15565b82525050565b6000602082019050611a436000830184611a1f565b92915050565b611a52816119aa565b82525050565b6000602082019050611a6d6000830184611a49565b92915050565b6000819050919050565b6000611a98611a93611a8e8461198a565b611a73565b61198a565b9050919050565b6000611aaa82611a7d565b9050919050565b6000611abc82611a9f565b9050919050565b611acc81611ab1565b82525050565b6000602082019050611ae76000830184611ac3565b92915050565b611af681611a15565b8114611b0157600080fd5b50565b600081359050611b1381611aed565b92915050565b600060208284031215611b2f57611b2e611985565b5b6000611b3d84828501611b04565b91505092915050565b60008115159050919050565b611b5b81611b46565b82525050565b6000602082019050611b766000830184611b52565b92915050565b60008060408385031215611b9357611b92611985565b5b6000611ba1858286016119d3565b9250506020611bb285828601611b04565b9150509250929050565b6000604082019050611bd16000830185611a1f565b611bde6020830184611a1f565b9392505050565b600081519050611bf481611aed565b92915050565b600060208284031215611c1057611c0f611985565b5b6000611c1e84828501611be5565b91505092915050565b600082825260208201905092915050565b7f416d6f756e74206d7573742062652067726561746572207468616e207a65726f600082015250565b6000611c6e602083611c27565b9150611c7982611c38565b602082019050919050565b60006020820190508181036000830152611c9d81611c61565b9050919050565b7f4e6f7420656e6f7567682062616c616e63650000000000000000000000000000600082015250565b6000611cda601283611c27565b9150611ce582611ca4565b602082019050919050565b60006020820190508181036000830152611d0981611ccd565b9050919050565b7f5374616b696e6720706f6f6c206e6f7420736574000000000000000000000000600082015250565b6000611d46601483611c27565b9150611d5182611d10565b602082019050919050565b60006020820190508181036000830152611d7581611d39565b9050919050565b7f4e487b7100000000000000000000000000000000000000000000000000000000600052601160045260246000fd5b6000611db682611a15565b9150611dc183611a15565b9250828203905081811115611dd957611dd8611d7c565b5b92915050565b6000606082019050611df46000830186611a49565b611e016020830185611a1f565b611e0e6040830184611a49565b949350505050565b7f496e76616c696420635553442061646472657373000000000000000000000000600082015250565b6000611e4c601483611c27565b9150611e5782611e16565b602082019050919050565b60006020820190508181036000830152611e7b81611e3f565b9050919050565b7f496e76616c6964207374616b696e6720706f6f6c206164647265737300000000600082015250565b6000611eb8601c83611c27565b9150611ec382611e82565b602082019050919050565b60006020820190508181036000830152611ee781611eab565b9050919050565b7f4f6e6c79204149204167656e742063616e2063616c6c20746869730000000000600082015250565b6000611f24601b83611c27565b9150611f2f82611eee565b602082019050919050565b60006020820190508181036000830152611f5381611f17565b9050919050565b7f4e6f20756e7374616b65642066756e647320746f207374616b65000000000000600082015250565b6000611f90601a83611c27565b9150611f9b82611f5a565b602082019050919050565b60006020820190508181036000830152611fbf81611f83565b9050919050565b6000819050919050565b600061ffff82169050919050565b6000611ff9611ff4611fef84611fc6565b611a73565b611fd0565b9050919050565b61200981611fde565b82525050565b60006080820190506120246000830187611a49565b6120316020830186611a1f565b61203e6040830185611a49565b61204b6060830184612000565b95945050505050565b7f496e76616c6964204149206167656e7420616464726573730000000000000000600082015250565b600061208a601883611c27565b915061209582612054565b602082019050919050565b600060208201905081810360008301526120b98161207d565b9050919050565b7f496e76616c6964204d6f6f6c61204d61726b65742070726f787920616464726560008201527f7373000000000000000000000000000000000000000000000000000000000000602082015250565b600061211c602283611c27565b9150612127826120c0565b604082019050919050565b6000602082019050818103600083015261214b8161210f565b9050919050565b7f43616e6e6f74207265636f766572206355534400000000000000000000000000600082015250565b6000612188601383611c27565b915061219382612152565b602082019050919050565b600060208201905081810360008301526121b78161217b565b9050919050565b7f43616e6e6f74206465706f736974203000000000000000000000000000000000600082015250565b60006121f4601083611c27565b91506121ff826121be565b602082019050919050565b60006020820190508181036000830152612223816121e7565b9050919050565b600061223582611a15565b915061224083611a15565b925082820190508082111561225857612257611d7c565b5b92915050565b60006040820190506122736000830185611a49565b6122806020830184611a49565b9392505050565b600060408201905061229c6000830185611a49565b6122a96020830184611a1f565b9392505050565b60006122cb6122c66122c184611fc6565b611a73565b611a15565b9050919050565b6122db816122b0565b82525050565b60006040820190506122f66000830185611a49565b61230360208301846122d2565b939250505056fea264697066735822122084b94c8c90a1caffb4d4844ba210256838827ffac07defa434b2a4879e8f5d0864736f6c63430008140033",
  "linkReferences": {},
  "deployedLinkReferences": {}
}