{
  "_format": "hh-sol-artifact-1",
  "contractName": "TestStakingPool",
  "sourceName": "contracts/TestStakingPool.sol",
  "abi": [
    {
      "inputs": [
        {
          "internalType": "address",
          "name": "user",
          "type": "address"
        }
      ],
      "name": "getRewards",
      "outputs": [
        {
          "internalType": "uint256",
          "name": "",
          "type": "uint256"
        }
      ],
      "stateMutability": "view",
      "type": "function"
    },
    {
      "inputs": [
        {
          "internalType": "uint256",
          "name": "amount",
          "type": "uint256"
        }
      ],
      "name": "stake",
      "outputs": [],
      "stateMutability": "nonpayable",
      "type": "function"
    },
    {
      "inputs": [
        {
          "internalType": "uint256",
          "name": "amount",
          "type": "uint256"
        }
      ],
      "name": "withdraw",
      "outputs": [],
      "stateMutability": "nonpayable",
      "type": "function"
    }
  ],
  "bytecode": "0x608060405234801561001057600080fd5b5061025d806100206000396000f3fe608060405234801561001057600080fd5b50600436106100415760003560e01c80632e1a7d4d1461004657806379ee54f714610062578063a694fc3a14610092575b600080fd5b610060600480360381019061005b9190610145565b6100ae565b005b61007c600480360381019061007791906101d0565b6100b1565b604051610089919061020c565b60405180910390f35b6100ac60048036038101906100a79190610145565b610107565b005b50565b60003373ffffffffffffffffffffffffffffffffffffffff168273ffffffffffffffffffffffffffffffffffffffff16036100f657678ac7230489e800009050610102565b674563918244f4000090505b919050565b50565b600080fd5b6000819050919050565b6101228161010f565b811461012d57600080fd5b50565b60008135905061013f81610119565b92915050565b60006020828403121561015b5761015a61010a565b5b600061016984828501610130565b91505092915050565b600073ffffffffffffffffffffffffffffffffffffffff82169050919050565b600061019d82610172565b9050919050565b6101ad81610192565b81146101b857600080fd5b50565b6000813590506101ca816101a4565b92915050565b6000602082840312156101e6576101e561010a565b5b60006101f4848285016101bb565b91505092915050565b6102068161010f565b82525050565b600060208201905061022160008301846101fd565b9291505056fea2646970667358221220e559fd96f84095aa6747062a2b65bdebd6d04c87e63669bf8809cf5bcfd667c364736f6c63430008140033",
  "linkReferences": {},
  "deployedLinkReferences": {}
}