{
  "_format": "hh-sol-artifact-1",
  "contractName": "TestMoolaMarket",
  "sourceName": "contracts/TestMoolaMarket.sol",
  "abi": [
    {
      "inputs": [
        {
          "internalType": "address",
          "name": "_token",
          "type": "address"
        }
      ],
      "stateMutability": "nonpayable",
      "type": "constructor"
    },
    {
      "inputs": [
        {
          "internalType": "address",
          "name": "asset",
          "type": "address"
        },
        {
          "internalType": "uint256",
          "name": "amount",
          "type": "uint256"
        },
        {
          "internalType": "address",
          "name": "",
          "type": "address"
        },
        {
          "internalType": "uint16",
          "name": "",
          "type": "uint16"
        }
      ],
      "name": "deposit",
      "outputs": [],
      "stateMutability": "nonpayable",
      "type": "function"
    },
    {
      "inputs": [],
      "name": "token",
      "outputs": [
        {
          "internalType": "contract IERC20",
          "name": "",
          "type": "address"
        }
      ],
      "stateMutability": "view",
      "type": "function"
    },
    {
      "inputs": [
        {
          "internalType": "address",
          "name": "asset",
          "type": "address"
        },
        {
          "internalType": "uint256",
          "name": "amount",
          "type": "uint256"
        },
        {
          "internalType": "address",
          "name": "to",
          "type": "address"
        }
      ],
      "name": "withdraw",
      "outputs": [],
      "stateMutability": "nonpayable",
      "type": "function"
    }
  ],
  "bytecode": "0x608060405234801561001057600080fd5b506040516108c33803806108c3833981810160405281019061003291906100db565b806000806101000a81548173ffffffffffffffffffffffffffffffffffffffff021916908373ffffffffffffffffffffffffffffffffffffffff16021790555050610108565b600080fd5b600073ffffffffffffffffffffffffffffffffffffffff82169050919050565b60006100a88261007d565b9050919050565b6100b88161009d565b81146100c357600080fd5b50565b6000815190506100d5816100af565b92915050565b6000602082840312156100f1576100f0610078565b5b60006100ff848285016100c6565b91505092915050565b6107ac806101176000396000f3fe608060405234801561001057600080fd5b50600436106100415760003560e01c806369328dec14610046578063e8eda9df14610062578063fc0c546a1461007e575b600080fd5b610060600480360381019061005b919061043c565b61009c565b005b61007c600480360381019061007791906104c9565b61020c565b005b61008661037f565b604051610093919061058f565b60405180910390f35b60008054906101000a900473ffffffffffffffffffffffffffffffffffffffff1673ffffffffffffffffffffffffffffffffffffffff168373ffffffffffffffffffffffffffffffffffffffff161461012a576040517f08c379a000000000000000000000000000000000000000000000000000000000815260040161012190610607565b60405180910390fd5b60008054906101000a900473ffffffffffffffffffffffffffffffffffffffff1673ffffffffffffffffffffffffffffffffffffffff1663a9059cbb82846040518363ffffffff1660e01b8152600401610185929190610645565b6020604051808303816000875af11580156101a4573d6000803e3d6000fd5b505050506040513d601f19601f820116820180604052508101906101c891906106a6565b610207576040517f08c379a00000000000000000000000000000000000000000000000000000000081526004016101fe9061071f565b60405180910390fd5b505050565b60008054906101000a900473ffffffffffffffffffffffffffffffffffffffff1673ffffffffffffffffffffffffffffffffffffffff168473ffffffffffffffffffffffffffffffffffffffff161461029a576040517f08c379a000000000000000000000000000000000000000000000000000000000815260040161029190610607565b60405180910390fd5b60008054906101000a900473ffffffffffffffffffffffffffffffffffffffff1673ffffffffffffffffffffffffffffffffffffffff166323b872dd3330866040518463ffffffff1660e01b81526004016102f79392919061073f565b6020604051808303816000875af1158015610316573d6000803e3d6000fd5b505050506040513d601f19601f8201168201806040525081019061033a91906106a6565b610379576040517f08c379a00000000000000000000000000000000000000000000000000000000081526004016103709061071f565b60405180910390fd5b50505050565b60008054906101000a900473ffffffffffffffffffffffffffffffffffffffff1681565b600080fd5b600073ffffffffffffffffffffffffffffffffffffffff82169050919050565b60006103d3826103a8565b9050919050565b6103e3816103c8565b81146103ee57600080fd5b50565b600081359050610400816103da565b92915050565b6000819050919050565b61041981610406565b811461042457600080fd5b50565b60008135905061043681610410565b92915050565b600080600060608486031215610455576104546103a3565b5b6000610463868287016103f1565b935050602061047486828701610427565b9250506040610485868287016103f1565b9150509250925092565b600061ffff82169050919050565b6104a68161048f565b81146104b157600080fd5b50565b6000813590506104c38161049d565b92915050565b600080600080608085870312156104e3576104e26103a3565b5b60006104f1878288016103f1565b945050602061050287828801610427565b9350506040610513878288016103f1565b9250506060610524878288016104b4565b91505092959194509250565b6000819050919050565b600061055561055061054b846103a8565b610530565b6103a8565b9050919050565b60006105678261053a565b9050919050565b60006105798261055c565b9050919050565b6105898161056e565b82525050565b60006020820190506105a46000830184610580565b92915050565b600082825260208201905092915050565b7f57726f6e6720746f6b656e000000000000000000000000000000000000000000600082015250565b60006105f1600b836105aa565b91506105fc826105bb565b602082019050919050565b60006020820190508181036000830152610620816105e4565b9050919050565b610630816103c8565b82525050565b61063f81610406565b82525050565b600060408201905061065a6000830185610627565b6106676020830184610636565b9392505050565b60008115159050919050565b6106838161066e565b811461068e57600080fd5b50565b6000815190506106a08161067a565b92915050565b6000602082840312156106bc576106bb6103a3565b5b60006106ca84828501610691565b91505092915050565b7f5472616e73666572206661696c65640000000000000000000000000000000000600082015250565b6000610709600f836105aa565b9150610714826106d3565b602082019050919050565b60006020820190508181036000830152610738816106fc565b9050919050565b60006060820190506107546000830186610627565b6107616020830185610627565b61076e6040830184610636565b94935050505056fea26469706673582212200450474921df2ef99dad8919cb675fa3f16ab8506b7bd626e10734d47bc2acf864736f6c63430008140033",
  "linkReferences": {},
  "deployedLinkReferences": {}
}